:100000006F604002130000001300000013000000A6
:100010001300000013000000130000001300000094
:100020001300000013000000130000001300000084
:08003000130000007300100032
:100038000000000000000000DC5E0000EC5E000034
:10004800000000006A5F00000000000000000000DF
:100058006C5F00006E5F0000000000000000000000
:10006800705F000000000000725F000000000000E8
:10007800745F0000765F0000785F00007A5F000020
:100088007C5F00007E5F00000E530000C25300003A
:10009800765400002A550000DE5500008A5F0000F3
:1000A8008C5F00008E5F0000905F0000925F000090
:1000B800945F0000965F0000985F00009A5F000060
:1000C8009C5F00009E5F0000A05F00009256000049
:1000D800A45F0000DC580000A85F0000AA5F0000D1
:1000E800745A0000D49C00000A9D0000B25F000012
:1000F800B45F0000B65F0000B85F0000BA5F0000A0
:10010800BC5F00001E4C0000E24C0000A64D000041
:10011800AA570000C65F0000C85F0000CA5F000061
:10012800A45C0000CE5F0000D05F0000D25F00003A
:10013800D45F0000D65F0000A0590000DA5F00001D
:100148006A4E00002E4F00002C5B0000E45B0000AC
:10015800E45F0000E65F0000E85F0000EA5F00007F
:10016800EC5F0000EE5F0000F05F0000F25F00004F
:10017800F45F0000F65F0000F85F00004E8B00009F
:10018800FC5F0000FE5F00003E520000F04F0000E0
:10019800B45000007E51000008600000645D00005B
:1001A8000C6000000E60000010600000245E00007B
:1001B8001460000016600000186000001A6000005B
:1001C8001C6000001E60000020600000226000002B
:1001D8000000000000000000000000000000000017
:1001E8000000000000000000000000000000000007
:0801F8000000000000000000FF
:100200003D432A876373C3029377F700BDEFADE5E3
:10021000937606FF3D8ABA960CC34CC30CC74CC7F5
:100220004107E36BD7FE11E28280B306C3408A0622
:100230009702000096966780A6002307B700A306E2
:10024000B7002306B700A305B7002305B700A30432
:10025000B7002304B700A303B7002303B700A3022A
:10026000B7002302B700A301B7002301B700A30022
:10027000B7002300B700828093F5F50F93968500B1
:10028000D58D93960501D58D61B79396270097027A
:10029000000096968682E78086FA9680C1171D8FA9
:1002A0003E96E374C3F8A5B7797106D622D4001838
:1002B000232EA4FC8327C4FDB18393F7F70FBD8BD6
:1002C000A307F4FE8327C4FDA18393F7F70FBD8B2B
:1002D0002307F4FE0347F4FEB70700200A079387BD
:1002E0008727BA979C430347E4FE91460546BA85A3
:1002F0003E85EF6000040347F4FEB70700200A07BD
:1003000093878727BA979C4385453E85EF50307E7B
:1003100001000347F4FEB70700200A0793878727E9
:10032000BA979C4389453E85EF602025AA87F5D37F
:100330000347F4FEB70700200A0793878727BA9779
:100340009C43FC478346F4FE138781863697034718
:100350000700B3D7E700C207C1833E85B2502254DD
:1003600045618280797106D622D40018232EA4FC20
:10037000AE87A30DF4FC0347B4FD13060005C16767
:100380009385476D3A85EF30C017232404FEA307F9
:1003900004FE05A00325C4FD013FAA873E878327ED
:1003A00084FEBA972324F4FE8347F4FE8507A3074F
:1003B000F4FE0347F4FE8347B4FDE36DF7FC834787
:1003C000B4FD032784FEB357F7022324F4FE8327EA
:1003D00084FEC207C1833E85B250225445618280AB
:1003E0005D7186C6A2C48008232EA4FA232CB4FA19
:1003F000232604FC232804FC232A04FC232C04FCCD
:10040000232E04FC232004FE232204FE232404FEC6
:100410008327C4FBB18393F7F70FBD8BA307F4FECB
:100420008327C4FB93F7F70F8146014681453E853C
:10043000792C8347F4FE99E7854513050020EF608A
:10044000701619A80347F4FE85476317F700854522
:1004500013050040EF6010153165EF60E06303475E
:10046000F4FEB70700200A0793878727BA979C43B3
:100470003E85EF509043232604FC232804FC232AC6
:1004800004FCB7070E00232CF4FC232E04FC854744
:100490002300F4FE0347F4FEB70700200A07938702
:1004A0008727BA979C431307C4FCBA853E85EF5053
:1004B000D0450347F4FEB70700200A079387872734
:1004C000BA979C4385453E85EF5050540347F4FE50
:1004D000B70700200A0793878727BA979C4381456F
:1004E0003E85EF60200D0347F4FEB70700200A07A2
:1004F00093878727BA979C433E85EF50105501009C
:100500000347F4FEB70700200A0793878727BA97A7
:100510009C433E85EF509055AA87FDF30347F4FEB8
:10052000B70700200A0793878727BA979C433E8521
:10053000EF50D05601000347F4FEB70700200A072A
:1005400093878727BA979C433E85EF505057AA87D9
:10055000FDF38346F4FE832784FB13F7F70F93879D
:100560008186B6972380E7000100B640264461618A
:100570008280011122CE00102326A4FE37F500E070
:100580008328450037F500E093F8E8FF23221501A2
:1005900083A8C1810965130505F433D5A802AA868D
:1005A00001470325C4FEAA87014837F500E033035D
:1005B000F702B308D8029A983383F60233B6F602EC
:1005C0009A85B387C8003E860CC950C9B7F700E0CA
:1005D0009843B7F700E01367070198C3B7F700E047
:1005E0009843B7F700E01367170298C30100B7F705
:1005F00000E0DC4313F717008547E31AF7FEB7F76F
:1006000000E09843B7F700E0799B98C3010072447B
:1006100005618280011122CE00102326A4FEAE8740
:10062000A305F4FE8347B4FE85CB8327C4FEBD8BB0
:100630000547B317F70093960701C1828327C4FECD
:1006400013D75700B70700200A0793870704BA9704
:100650009C43368798CB3DA08327C4FEBD8B0547BE
:10066000B317F70093960701C1828327C4FE13D7FF
:100670005700B70700200A0793870704BA979C43DF
:100680003687D8CB0100724405618280011122CEE9
:1006900000102326A4FE8327C4FE958313F777005A
:1006A000B70700200A0793870704BA979C439C4723
:1006B0000327C4FE7D8B85463397E600F98FB33759
:1006C000F00093F7F70F3E857244056182807971DF
:1006D00006D622D40018232EA4FC232CB4FCB28707
:1006E0002328D4FCA30BF4FC232004FE232204FEC5
:1006F000232404FE8327C4FD958393F7F70F9D8B76
:10070000A307F4FE8327C4FD93F7F70FFD8B2307A0
:10071000F4FE8347F4FE91E785451145EF6080685C
:1007200091A80347F4FE85476317F70085452145E7
:10073000EF60406781A00347F4FE89476317F70025
:1007400085454145EF60006635A00347F4FE8D47BF
:100750006318F700854513050002EF60A06419A82F
:100760000347F4FE91476317F7008545130500041E
:10077000EF6040638347E4FE0547B317F700C20705
:10078000C1832310F4FE032784FD85476317F70216
:10079000832704FDC207C183A183C207C18389E700
:1007A0008D472322F4FE11A8832704FDC207C183CD
:1007B000A183C207C1832322F4FE832704FDC2075D
:1007C000C18393F7F70F2324F4FE0347F4FEB70722
:1007D00000200A0793870704BA979C43130704FE77
:1007E000BA853E85EF50B068032784FD85476319BD
:1007F000F7020347F4FEB70700200A0793870704B0
:10080000BA9794438347E4FE0547B317F700C2073E
:10081000C183034774FD3A86BE853685EF60C00705
:100820000100B2502254456182801D7186CEA2CC57
:1008300080102326A4FA2324B4FA85450325C4FA9C
:10084000EF106049AA873E871306D006C1679385DB
:1008500047773A85EF20F04A832784FAB337F000D0
:1008600093F7F70F3E871306F006C1679385477726
:100870003A85EF201049832784FABD832315F4FEBF
:100880008357A4FE85073E87832784FAB3D7E70200
:100890002314F4FE0325C4FAEF10404AB737014091
:1008A000938707C02326F4FE0327C4FAA54763EC09
:1008B000E7088327C4FA13972700C567938707CBF8
:1008C000BA979C438287B7370140938707C0232696
:1008D000F4FE95A8B70700402326F4FEADA0B707A5
:1008E0000040938707402326F4FEB1A8B7170040C5
:1008F000938707802326F4FEB9A0B717004093879B
:1009000007C02326F4FE81A0B71700402326F4FE7B
:100910001DA8B7170040938707402326F4FE25A0A3
:10092000B7370140938707402326F4FE29A8B7571D
:100930000140938707C02326F4FE31A0B75701403A
:100940002326F4FE0100232E04FC232004FE2312A0
:1009500004FE835784FE2310F4FE8357A4FE231E57
:10096000F4FC231104FE231F04FC230204FE93075E
:10097000C4FDBE850325C4FEEF60E04F05468545F6
:100980000325C4FEEF60B07485450325C4FEEF70F7
:10099000E053C16703AEC7741387C77403234700CE
:1009A0001387C774832887001387C7740328C70079
:1009B0001387C774084B1387C7744C4B1387C774CE
:1009C000104F1387C774544F1387C77418539387F6
:1009D000C774DC53232AC4FB232C64FA232E14FB94
:1009E000232004FD2322A4FC2324B4FC2326C4FCDE
:1009F0002328D4FC232AE4FC232CF4FC8327C4FA08
:100A000093F7F70F8A07130704FFBA9783A747FCEA
:100A10008D453E85EF4020178327C4FA8A071307C8
:100A200004FFBA9783A747FC3E85EF4040128545F7
:100A30000325C4FEEF60305E0100F6406644256188
:100A40008280797106D622D40018232EA4FC232C90
:100A5000B4FC032784FD896793871771B337F700C8
:100A600093F7F70F3E8713065003C1679385C77E40
:100A70003A85EF201029B7370140938707C0232616
:100A8000F4FE8327C4FDC183BD8B2547636EF70643
:100A900013972700C567938787CDBA979C438287B2
:100AA000B7370140938707C02326F4FEB1A8B707E4
:100AB00000402326F4FE89A8B7070040938707402B
:100AC0002326F4FE91A0B7170040938707802326C2
:100AD000F4FE1DA8B7170040938707C02326F4FE35
:100AE00025A0B7370140938707402326F4FE29A8A5
:100AF000B7570140938707C02326F4FE31A0B757AC
:100B000001402326F4FE01008327C4FE83D7C702D9
:100B10002315F4FE0357A4FE832784FD3307F70251
:100B2000896793870771B357F7022314F4FE83276D
:100B3000C4FDA1838D8B81EB8327C4FE035784FE04
:100B4000239AE702A9A88327C4FDA18313F73700DE
:100B500085476319F7008327C4FE035784FE239C4F
:100B6000E70235A88327C4FDA18313F7370089471F
:100B70006319F7008327C4FE035784FE239EE70210
:100B800039A88327C4FDA18313F737008D47631865
:100B9000F7008327C4FE035784FE2390E704010077
:100BA000B250225445618280797122D60018232EDA
:100BB000A4FC232CB4FC232AC4FC231504FE231418
:100BC00004FE03A7C181832784FDB357F702C183C5
:100BD0002314F4FE03A7C181835784FE8507BE86D4
:100BE000832784FDB387F602B357F7022315F4FE7B
:100BF000B7370140938707C02326F4FE8327C4FD3F
:100C0000C183BD8B2547636EF70613972700C56721
:100C1000938707D0BA979C438287B7370140938761
:100C200007C02326F4FEB1A8B70700402326F4FE30
:100C300089A8B7070040938707402326F4FE91A0B8
:100C4000B7170040938707802326F4FE1DA8B71727
:100C50000040938707C02326F4FE25A0B737014044
:100C6000938707402326F4FE29A8B75701409387AE
:100C700007C02326F4FE31A0B75701402326F4FE17
:100C800001008357A4FEFD171397070141838327B3
:100C9000C4FE2396E7028327C4FE035784FE2394F1
:100CA000E7020357A4FE832744FD3307F702896751
:100CB00093870771B357F7022313F4FE8327C4FD0C
:100CC000A1838D8B81EB8327C4FE035764FE239A97
:100CD000E702A9A88327C4FDA18313F7370085473E
:100CE0006319F7008327C4FE035764FE239CE702C1
:100CF00035A88327C4FDA18313F7370089476319FB
:100D0000F7008327C4FE035764FE239EE70239A839
:100D10008327C4FDA18313F737008D476318F700BD
:100D20008327C4FE035764FE2390E7040100325476
:100D3000456182805D7186C6A2C48008232EA4FA14
:100D4000232CB4FA232AC4FA8327C4FBC1838D451C
:100D50003E85EF005078AA873E871306D00AC16708
:100D60009385C77E3A85EF20C079032744FB8967C6
:100D700093871771B337F70093F7F70F3E87130682
:100D8000F00AC1679385C77E3A85EF208077232ECE
:100D900004FC232004FE231204FE232604FC232843
:100DA00004FC232A04FC232C04FC231504FE8327C3
:100DB000C4FBC183BD8B3E85EF0050788327C4FB05
:100DC00093F7F70F93068031014685453E85013242
:100DD00085450545EF50107DB7370140938707C023
:100DE0002326F4FE8327C4FBC183BD8B2547636E96
:100DF000F70613972700C567938787D2BA979C4356
:100E00008287B7370140938707C02326F4FEB1A835
:100E1000B70700402326F4FE89A8B7070040938750
:100E200007402326F4FE91A0B71700409387078060
:100E30002326F4FE1DA8B7170040938707C023267A
:100E4000F4FE25A0B7370140938707402326F4FE20
:100E500029A8B7570140938707C02326F4FE31A085
:100E6000B75701402326F4FE01008327C4FB13D7A4
:100E7000C7008D47631AF7008545B707160013852D
:100E8000070CEF50F02415AA8327C4FB13D7C70023
:100E9000C547631AF7008545B70718001385071083
:100EA000EF50102319AA8327C4FB13D7C700C947E3
:100EB000631AF7008545B707180013850720EF5020
:100EC0003021E5A88327C4FB13D7C700CD47631A99
:100ED000F7008545B707180013850730EF50501FFE
:100EE000E9A88327C4FB13D7C70093072002631A1E
:100EF000F7008545B7171A0013850780EF50501D7E
:100F00006DA88327C4FB13D7C70093073002631A69
:100F1000F7008545B7171A00138507C0EF50501B1F
:100F200069A88327C4FB13D7C7009307100363176F
:100F3000F70085450565EF50B01941A08327C4FB34
:100F400013D7C70093071007631AF7008545B70743
:100F5000008013854700EF50B01785A08327C4FB9E
:100F600013D7C70093073008631AF7008545B70702
:100F7000138013850701EF50B01581A08327C4FBB0
:100F800013D7C70093071009631AF7008545B70701
:100F9000158013850702EF50B01305A08327C4FB0B
:100FA00013D7C700930730096319F7008545B707C2
:100FB000158013850704EF50B01103A7C181832763
:100FC00084FBB357F702C1832315F4FE03A7C18145
:100FD0008357A4FE8507BE86832784FBB387F6026A
:100FE000B357F7022314F4FE035784FE832744FB10
:100FF0003307F702896793870771B357F702231303
:10100000F4FE835784FEFD17C207C1832310F4FE4C
:101010008357A4FE231EF4FC231104FE231F04FCAB
:10102000230204FE9307C4FDBE850325C4FEEF50D2
:101030009064930700072316F4FC85472317F4FCFC
:10104000231804FC835764FE2319F4FC8947231AF0
:10105000F4FC8947231BF4FC231C04FC231D04FC23
:101060008327C4FBA1838D8B9DE39307C4FCBE85BE
:101070000325C4FEEF501078A1450325C4FEEF60A0
:10108000901991450325C4FEEF60B02D45A083273C
:10109000C4FBA18313F7370085476315F702930755
:1010A000C4FCBE850325C4FEEF60800EA145032568
:1010B000C4FEEF60101B930500400325C4FEEF60E3
:1010C000102FADA08327C4FBA18313F737008947F6
:1010D0006314F7029307C4FCBE850325C4FEEF60CA
:1010E0004029A1450325C4FEEF60501D914503250D
:1010F000C4FEEF6030311DA88327C4FBA18313F722
:1011000037008D476314F7029307C4FCBE8503259F
:10111000C4FEEF60C043A1450325C4FEEF60D01EAE
:10112000930500400325C4FEEF60903285450325FA
:10113000C4FEEF60C07385450325C4FEEF60A06D5B
:101140000100B640264461618280797106D622D4BE
:101150000018232EA4FC8327C4FDB337F00093F7B7
:10116000F70F3E8713061004C567938547863A85B7
:10117000EF2020398327C4FD9C43BD8B0547B3175F
:10118000F70093960701C1828327C4FD9C4313D7C0
:101190005700B70700200A0793870704BA979C43B4
:1011A000368798CB8327C4FDDC43BD8B0547B31737
:1011B000F70093960701C1828327C4FDDC4313D750
:1011C0005700B70700200A0793870704BA979C4384
:1011D000368798CB8327C4FDDC472326F4FE010025
:1011E0008327C4FE1387F7FF2326E4FEF5FB83273E
:1011F000C4FDDC43BD8B0547B317F7009396070189
:10120000C1828327C4FDDC4313D75700B7070020F2
:101210000A0793870704BA979C433687D8CB83275E
:10122000C4FDDC472324F4FE0100832784FE1387DA
:10123000F7FF2324E4FEF5FB8327C4FD9C43BD8B0D
:101240000547B317F70093960701C1828327C4FDB2
:101250009C4313D75700B70700200A07938707045A
:10126000BA979C433687D8CB0100B25022544561CF
:101270008280797106D622D40018232EA4FC8327FD
:10128000C4FDB337F00093F7F70F3E871306400510
:10129000C567938547863A85EF20A0268327C4FD3E
:1012A000DC43BD8B0547B317F70093960701C18256
:1012B0008327C4FDDC4313D75700B70700200A0774
:1012C00093870704BA979C433687D8CB8327C4FDFE
:1012D0009C43BD8B0547B317F70093960701C18266
:1012E0008327C4FD9C4313D75700B70700200A0784
:1012F00093870704BA979C433687D8CB8327C4FDCE
:10130000DC472326F4FE01008327C4FE1387F7FF82
:101310002326E4FEF5FB8327C4FD9C43BD8B0547D4
:10132000B317F70093960701C1828327C4FD9C433E
:1013300013D75700B70700200A0793870704BA9707
:101340009C43368798CB8327C4FDDC472324F4FED7
:101350000100832784FE1387F7FF2324E4FEF5FBB7
:101360008327C4FDDC43BD8B0547B317F700939675
:101370000701C1828327C4FDDC4313D75700B70799
:1013800000200A0793870704BA979C43368798CBB7
:101390008327C4FDDC472322F4FE0100832744FE9B
:1013A0001387F7FF2322E4FEF5FB0100B25022541D
:1013B00045618280797106D622D40018232EA4FCC0
:1013C000AE87A30DF4FC8327C4FDB337F00093F779
:1013D000F70F3E8713069006C567938547863A85C3
:1013E000EF2020128327C4FD9C43BD8B0547B31714
:1013F000F70093960701C1828327C4FD9C4313D74E
:101400005700B70700200A0793870704BA979C4341
:101410003687D8CB8347B4FD95CB8327C4FDDC4307
:10142000BD8B0547B317F70093960701C182832749
:10143000C4FDDC4313D75700B70700200A07938782
:101440000704BA979C43368798CB0DA88327C4FD21
:10145000DC43BD8B0547B317F70093960701C182A4
:101460008327C4FDDC4313D75700B70700200A07C2
:1014700093870704BA979C433687D8CB8327C4FD4C
:10148000DC472326F4FE01008327C4FE1387F7FF01
:101490002326E4FEF5FB8327C4FD9C43BD8B054753
:1014A000B317F70093960701C1828327C4FD9C43BD
:1014B00013D75700B70700200A0793870704BA9786
:1014C0009C43368798CB8327C4FDDC472324F4FE56
:1014D0000100832784FE1387F7FF2324E4FEF5FB36
:1014E0008327C4FD9C43BD8B0547B317F700939634
:1014F0000701C1828327C4FD9C4313D75700B70758
:1015000000200A0793870704BA979C433687D8CBF5
:101510008327C4FDDC43BD8B0547B317F7009396C3
:101520000701C1828327C4FDDC4313D75700B707E7
:1015300000200A0793870704BA979C43368798CB05
:101540000100B250225445618280797106D622D4BE
:101550000018232EA4FC8327C4FDB337F00093F7B3
:10156000F70F3E8713065008C567938547863A856F
:10157000EF103079A30704FE8327C4FD9C43BD8B85
:101580000547B317F70093960701C1828327C4FD6F
:101590009C4313D75700B70700200A079387070417
:1015A000BA979C433687D8CB8327C4FDDC43BD8BD9
:1015B0000547B317F70093960701C1828327C4FD3F
:1015C000DC4313D75700B70700200A0793870704A7
:1015D000BA979C43368798CB8327C4FDDC472324E6
:1015E000F4FE0100832784FE1387F7FF2324E4FE23
:1015F000F5FB8327C4FD9C43BD8B0547B317F7005C
:1016000093960701C1828327C4FD9C4313D75700DB
:10161000B70700200A0793870704BA979C433687C9
:1016200098CB8327C4FDDC472322F4FE01008327E7
:1016300044FE1387F7FF2322E4FEF5FB8327C4FD56
:10164000DC433E85EFF08F84AA8781C78547A307D7
:10165000F4FE8327C4FD9C43BD8B0547B317F700F9
:1016600093960701C1828327C4FD9C4313D757007B
:10167000B70700200A0793870704BA979C43368769
:10168000D8CB8327C4FDDC472320F4FE0100832749
:1016900004FE1387F7FF2320E4FEF5FB8347F4FEE7
:1016A0003E85B250225445618280797106D622D49B
:1016B0000018232EA4FCAE87A30DF4FC8327C4FDE1
:1016C000B337F00093F7F70F3E871306700AC5672C
:1016D000938547863A85EF10D062930700F8A307F9
:1016E000F4FE09AA0347B4FD8347F4FEF98F93F78C
:1016F000F70F95CB8327C4FDDC43BD8B0547B3179C
:10170000F70093960701C1828327C4FDDC4313D7FA
:101710005700B70700200A0793870704BA979C432E
:10172000368798CB0DA88327C4FDDC43BD8B0547C6
:10173000B317F70093960701C1828327C4FDDC43EA
:1017400013D75700B70700200A0793870704BA97F3
:101750009C433687D8CB8347F4FE8583A307F4FEEA
:101760008327C4FDDC472324F4FE0100832784FE85
:101770001387F7FF2324E4FEF5FB8327C4FD9C4376
:10178000BD8B0547B317F70093960701C1828327E6
:10179000C4FD9C4313D75700B70700200A0793875F
:1017A0000704BA979C43368798CB8327C4FDDC4750
:1017B0002322F4FE0100832744FE1387F7FF232230
:1017C000E4FEF5FB8327C4FD9C43BD8B0547B3179F
:1017D000F70093960701C1828327C4FD9C4313D76A
:1017E0005700B70700200A0793870704BA979C435E
:1017F0003687D8CB8347F4FEE39607EE0325C4FD76
:10180000A933AA87FD17B337F00093F7F70F3E858A
:10181000B250225445618280397106DE22DC26DA1C
:1018200080002326A4FCAE87A305F4FC8327C4FC18
:10183000B337F00093F7F70F3E871306000CC56728
:10184000938547863A85EF10D04BA30704FEA14746
:101850002307F4FE8327C4FC9C43BD8B0547B317C5
:10186000F70093960701C1828327C4FC9C4313D7DA
:101870005700B70700200A0793870704BA979C43CD
:101880003687D8CB8327C4FCDC472324F4FE010031
:10189000832784FE1387F7FF2324E4FEF5FB8327C9
:1018A000C4FCDC43BD8B0547B317F70093960701D3
:1018B000C1828327C4FCDC4313D75700B70700203D
:1018C0000A0793870704BA979C43368798CB7DA86D
:1018D0008327C4FC9C43BD8B0547B317F700939641
:1018E0000701C1828327C4FC9C4313D75700B70765
:1018F00000200A0793870704BA979C433687D8CB02
:101900008327C4FCDC472322F4FE0100832744FE26
:101910001387F7FF2322E4FEF5FB8327C4FC9C43D7
:10192000BD8B0547B317F70093960701C182832744
:10193000C4FC9C4313D75700B70700200A079387BE
:101940000704BA979C43368798CB8327C4FCDC47AF
:101950002320F4FE0100832704FE1387F7FF2320D2
:10196000E4FEF5FB8347F4FE860793948701E18448
:101970008327C4FCDC433E85EFE05FD1AA87E20702
:10198000E187C58FE207E187A307F4FE8347E4FE02
:101990001387F7FF2307E4FE85FF8327C4FC9C43DE
:1019A000BD8B0547B317F70093960701C1828327C4
:1019B000C4FC9C4313D75700B70700200A0793873E
:1019C0000704BA979C433687D8CB8327C4FCDC47EF
:1019D000232EF4FC01008327C4FD1387F7FF232E79
:1019E000E4FCF5FB8347B4FCBE850325C4FCD93277
:1019F0008347F4FE3E85F2506254D25421618280C6
:101A0000011106CE22CC00102326A4FEAE87328719
:101A1000A305F4FEBA872305F4FE8327C4FEB3377B
:101A2000F00093F7F70F3E8713066013C5679385A1
:101A300047863A85EF10F02C0325C4FEEFF0EFF057
:101A40008327C4FE83C78700860793F7F70FBE85F9
:101A50000325C4FE99398347B4FEBE850325C4FE21
:101A6000A9318347A4FEBE850325C4FE3D39032565
:101A7000C4FEEFF01F800100F240624405618280E5
:101A8000797106D622D40018232EA4FCAE87A30DAC
:101A9000F4FC8327C4FDB337F00093F7F70F3E87BC
:101AA0001306401EC567938547863A85EF1070255B
:101AB000A30704FE0325C4FDEFF02FE98327C4FD2F
:101AC00083C78700860793F7F70FBE850325C4FDFC
:101AD000E93E8347B4FDBE850325C4FDF9360325E1
:101AE000C4FDEFF08FE68327C4FD83C78700860718
:101AF000E207E18793E71700E207E18793F7F70F23
:101B0000BE850325C4FD553685450325C4FD29330F
:101B1000AA87A307F4FE0325C4FDEFF08FF58347E2
:101B2000F4FE3E85B250225445618280011106CEFA
:101B300022CC26CA00102326A4FEAE872322C4FE90
:101B40002320D4FEA305F4FE8327C4FEB337F000A0
:101B500093F7F70F3E871306C01FC5679385478627
:101B60003A85EF10101A832744FEB337F00093F73D
:101B7000F70F3E871306D01FC567938547863A85C2
:101B8000EF1030180325C4FEEFF02FDC8327C4FECE
:101B900083C78700860793F7F70FBE850325C4FE2A
:101BA00029368347B4FEBE850325C4FEFD3C0325CC
:101BB000C4FEEFF08FD98327C4FE83C78700860752
:101BC000E207E18793E71700E207E18793F7F70F52
:101BD000BE850325C4FED13C2DA0832704FE93B708
:101BE000170093F7F70F3E87832444FE9387140072
:101BF0002322F4FEBA850325C4FE3939AA8723803F
:101C0000F400832704FE1387F7FF2320E4FEF1F797
:101C10000325C4FEEFF0EFE50100F2406244D24438
:101C200005618280797106D622D400182326A4FE8D
:101C3000AE872322C4FE2320D4FE232EE4FCA3057A
:101C4000F4FE8327C4FEB337F00093F7F70F3E8707
:101C50001306F02BC567938547863A85EF10700A07
:101C6000032704FE8327C4FDB307F740B337F00012
:101C700093F7F70F3E871306002CC56793854786B9
:101C80003A85EF1010088327C4FE032704FE98C38B
:101C90008327C4FE0327C4FDD8C38327C4FE03479C
:101CA000B4FE2384E7008327C4FE032744FED8C77D
:101CB000C14605468545032504FEEFE05FA1D146F8
:101CC000054685450325C4FDEFE07FA00100B25025
:101CD000225445618280797122D60018232EA4FCFB
:101CE000232CB4FC8547A307F4FE0327C4FD0A0791
:101CF00093870193BA979C4399EB0327C4FD0A0786
:101D000093870193BA97032784FD98C315A00327EF
:101D1000C4FD0A0793870193BA979C43032784FD68
:101D20006316F7008547A307F4FE19A0A30704FE76
:101D30008347F4FE3E85325445618280011106CE10
:101D400022CC00102326A4FE8327C4FE81EB854508
:101D5000856713850780EF50E0046DA80327C4FE54
:101D600085476317F70085450545EF5000085DA0DE
:101D70000327C4FE89476317F70085450945EF50DF
:101D8000C00649A80327C4FE8D476317F7008545A1
:101D90001145EF508005BDA80327C4FE9147631786
:101DA000F70085452145EF504004ADA00327C4FE50
:101DB00095476317F70085454145EF50000399A803
:101DC0000327C4FE99476318F700854513050002F1
:101DD000EF50A00181A00327C4FE9D476317F700C1
:101DE00085450965EF40107C35A00327C4FEA14757
:101DF0006318F700854537050800EF40B07A19A849
:101E00000327C4FEA5476317F70085453705100073
:101E1000EF4050790100F24062440561828079719F
:101E200022D60018232EA4FCB7370140938707C0A1
:101E30002326F4FE231504FE0327C4FDA54763EC07
:101E4000E7088327C4FD13972700C567938707D545
:101E5000BA979C438287B7370140938707C02326F0
:101E6000F4FE95A8B70700402326F4FEADA0B707FF
:101E70000040938707402326F4FEB1A8B71700401F
:101E8000938707802326F4FEB9A0B71700409387F5
:101E900007C02326F4FE81A0B71700402326F4FED6
:101EA0001DA8B7170040938707402326F4FE25A0FE
:101EB000B7370140938707402326F4FE29A8B75778
:101EC0000140938707C02326F4FE31A0B757014095
:101ED0002326F4FE01000327C4FD0A07938781959A
:101EE000BA9798438947631FF7008327C4FE83D7B7
:101EF00047021397070141838D47B357F702231514
:101F0000F4FE39A08327C4FE83D747022315F4FECD
:101F10008357A4FE3E85325445618280797122D672
:101F20000018232EA4FCB7370140938707C023264F
:101F3000F4FE0327C4FDA54763ECE7088327C4FD2F
:101F400013972700C567938787D7BA979C438287E3
:101F5000B7370140938707C02326F4FE95A8B7073B
:101F600000402326F4FEADA0B7070040938707404A
:101F70002326F4FEB1A8B7170040938707802326D5
:101F8000F4FEB9A0B7170040938707C02326F4FEDC
:101F900081A0B71700402326F4FE1DA8B717004004
:101FA000938707402326F4FE25A0B7370140938787
:101FB00007402326F4FE29A8B7570140938707C09E
:101FC0002326F4FE31A0B75701402326F4FE01007A
:101FD0008327C4FE239207020100325445618280A8
:101FE000011122CE00102326A4FEAE87A305F4FE25
:101FF0000100C5670327C4FE0A07938707DABA976B
:102000009C4383D70700C207C18393F70708F5D322
:10201000C5670327C4FE0A07938707DABA979C436C
:102020003E878347B4FEC207C1832312F700010035
:10203000724405618280011106CE22CC0010232655
:10204000A4FE2324B4FE2322C4FE832784FEB337D8
:10205000F00093F7F70F3E8713061004C5679385CA
:10206000078E3A85EF10E04929A8832784FE13875D
:1020700017002324E4FE83C70700BE850325C4FEA2
:102080008537832744FE1387F7FF2322E4FEF1FF01
:102090000100F240624405618280011106CE22CC2B
:1020A00000102326A4FE2324B4FE832784FEB33726
:1020B000F00093F7F70F3E8713060005C567938579
:1020C000078E3A85EF10E04339A8832784FE1387F3
:1020D00017002324E4FE8387070093F7F70FBE85DC
:1020E0000325C4FEF53D832784FE83870700F1FFA7
:1020F0000100F240624405618280011106CE22CCCB
:1021000000102326A4FEAE87A305F4FEC5670327AF
:10211000C4FE0A07938707DABA979C433E87834732
:10212000B4FE3E86930550523A85EF6040651387B2
:1021300081858327C4FEBA9783C7070081453E8502
:10214000EF2070248347B4FE81CF138781858327D6
:10215000C4FEBA9783C707003E85EF20501F19A819
:10216000138781858327C4FEBA9783C707003E85FE
:10217000EF20B01F0100F24062440561828001112E
:1021800022CE00102326A4FE2324B4FEC567032715
:10219000C4FE0A07938707DABA979C4383D70700E0
:1021A000C207C18393F707028DC7C5670327C4FE23
:1021B0000A07938707DABA979C4383D74700C20779
:1021C000C18313F7F70F832784FE2380E700854739
:1021D00011A081473E85724405618280797106D6DF
:1021E00022D40018232EA4FC232CB4FC232AC4FCE4
:1021F0002328D4FC032744FD832704FD3D8F832738
:10220000C4FDB207F98F93B7170093F7F70F3E8716
:102210001306A00AC5679385078E3A85EF10602ED6
:10222000832744FD13D78700832704FDA183B307C9
:10223000F74093B7170093F7F70F3E871306B00ADE
:10224000C5679385078E3A85EF10A02B832744FD41
:1022500093F7F70FE146014685453E85EFE02FC72E
:10226000832704FD93F7F70F930680040146814509
:102270003E85EFE0CFC585450545EF40B0320327E9
:1022800044FDC167FD17F98F0D6713070738638792
:10229000E7200D67130707386369F704056713071D
:1022A00057166381E716056713075716636FF70024
:1022B0001307F022638AE70C130760306381E7108D
:1022C000130760126388E70865A609671307873656
:1022D000638BE7160D67130707126387E718096713
:1022E0001307A7146380E71461A615671307A738BF
:1022F000638EE72615671307A7386362F702116735
:10230000130787386380E7201567130787126385F3
:10231000E722116713074712638CE71A91AE19671A
:102320001307C7386388E72A19671307C738636834
:10233000F7001967130767106384E72615AE1D675A
:102340001307E7106382E72C1D671307E7386387DD
:10235000E72E39AEB7070140D44FB7070140370722
:1023600000FC7D17758FD8CFB7070140D843B7075A
:1023700001406D9BD8C3B7070140D843B707014060
:1023800013674700D8C3EDA4B7070140D44FB70780
:102390000140370700FC7D17758FD8CFB707014084
:1023A000D44FB707014037070004558FD8CFB70780
:1023B0000140D843B70701406D9BD8C355ACB70760
:1023C0000140D44FB7070140370700FC7D17758FD8
:1023D000D8CFB7070140D44FB707014037070004F3
:1023E000558FD8CFB7070140D843B70701406D9B41
:1023F000D8C3B7070140D843B70701401367470068
:10240000D8C3BDA4B7070140D843B70701405D9BBF
:10241000D8C3B7070140D843B70701401367870007
:10242000D8C3B9A4B7070140D843B7070140137711
:10243000F7FCD8C3B7070140D843B707014013677B
:102440000701D8C335A4B7070140D843B7070140F7
:102450001377F7FCD8C3B7070140D843B70701404B
:1024600013670703D8C329A4B7070140D44FB707A0
:1024700001403707FDFF7D17758FD8CFB7070140A3
:10248000D44F832744FDA18313970701B7070300A7
:102490007D8FB7070140558FD8CFD9AAB707014024
:1024A000D44FB70701403707FDFF7D17758FD8CF91
:1024B000B7070140D44F832744FDA1831397070139
:1024C000B70703007D8FB7070140558FD8CF4DA2C6
:1024D000B7070140D44FB70701403707F4FF7D1716
:1024E000758FD8CFB7070140D44F832744FDA18310
:1024F00013972701B7070C007D8FB7070140558F51
:10250000D8CFBDA2B7070140D44FB7070140370766
:10251000F4FF7D17758FD8CFB7070140D44F8327BD
:1025200044FDA18313972701B7070C007D8FB707E0
:102530000140558FD8CF2DAAB7070140D44FB70718
:1025400001403707D0FF7D17758FD8CFB7070140FF
:10255000D44F832744FDA18313974701B707300069
:102560007D8FB7070140558FD8CF19A2B70701401B
:10257000D44FB70701403707D0FF7D17758FD8CFED
:10258000B7070140D44F832744FDA1831397470128
:10259000B70730007D8FB7070140558FD8CFC9A846
:1025A000B7070140D44FB7070140370740FF7D17F9
:1025B000758FD8CFB7070140D44F832744FDA1833F
:1025C00013976701B707C0007D8FB7070140558F8C
:1025D000D8CF79A8B7070140D44FB70701403707D4
:1025E00040FF7D17758FD8CFB7070140D44F8327A1
:1025F00044FDA18313976701B707C0007D8FB7071C
:102600000140558FD8CFADA0B7070140D44FB707D1
:102610000140370700FD7D17758FD8CFB707014000
:10262000D44F832744FDA18313978701B707000385
:102630007D8FB7070140558FD8CF1DA8B707014040
:10264000D44FB7070140370700FD7D17758FD8CFEE
:10265000B7070140D44F832744FDA1831397870117
:10266000B70700037D8FB7070140558FD8CF010012
:102670008327C4FD91E785451165EF40A07269A8E5
:102680000327C4FD85476318F70085453705020019
:10269000EF40A07551A00327C4FD89476318F700D8
:1026A000854537050400EF404074BDA00327C4FDF5
:1026B0008D476318F700854537050800EF40E07245
:1026C000A1A80327C4FD91476318F7008545370586
:1026D0001000EF40807189A00327C4FD954763185F
:1026E000F700854513050004EF40207035A003274F
:1026F000C4FD99476318F700854513050008EF40AE
:10270000C06E19A80327C4FD9D476317F7008545D0
:1027100013050010EF40606D232004FE232204FE09
:10272000232404FE232604FE832784FD2320F4FEB5
:10273000231204FE231304FE231404FE231604FEB6
:10274000B1472315F4FEC5670327C4FD0A07938725
:1027500007DABA979C433E87930704FEBE853A8505
:10276000EF50B058C5670327C4FD0A07938707DAFF
:10277000BA979C4385453E85EF50707A0100B25070
:10278000225445618280411106C622C4000883A7F5
:1027900001870547638BE7006386070C0947638D54
:1027A000E7000D47638FE702D9A083A7C18613878F
:1027B000170023A6E18665A883A7C18613871700A3
:1027C00023A6E18603A7C186A54763FFE708B707ED
:1027D0000020938707049C4B1167D8CB23A6018662
:1027E00061A003A7418785476312F7081305F00826
:1027F000EFD0DFE9AA87B9CF1945EFF04FE2AA87FA
:102800003E8783A7C1861D8F9307600963F0E706A3
:102810001945EFF0AFF083A7C186D3F717D05385E2
:10282000F720EFA00048C56703A6879583A6C79544
:10283000EF90800CAA872E883E85C285EFA0202FBE
:10284000AA871397070141832394E180094723AAAC
:10285000E18629A81945EFF08FDCAA873E8723A6D9
:10286000E18629A0010021A0010011A001000100C2
:10287000B240224441018280411106C622C40008B0
:1028800083A701870947637CF7000D47639AE70038
:102890001945EFF0AFE8054723AAE18611A0010032
:1028A0000100B240224441018280011106CE22CCB7
:1028B0000010232204FE83C791876381071409A8AF
:1028C000930734FE0546BE8513850198EF10203F1F
:1028D000930734FEBE851D45EFF07F8AAA87EDF38E
:1028E000034734FEA947631BF71099472322F4FEE0
:1028F000130744FE930784FE85463A86BE851385FA
:102900000198EF10701A930784FE138737000D4665
:10291000C567938507963A85EFB02050AA879DEB4F
:1029200003A7018889476304F70C054723A0E188C2
:1029300013850198EF100031AA872322F4FE930734
:1029400044FE81463E869385C1A113850198EF1010
:10295000B01571A8930784FE138737000D46C5672D
:10296000938547963A85EFB0404BAA879DEB03A726
:10297000C1878947630DF706054723AEE1861385B6
:102980000198EF10202CAA872322F4FE930744FE1F
:1029900081463E869385C19913850198EF10D0102A
:1029A000B9A0930784FE138737000D46C56793854A
:1029B00087963A85EFB06046AA8795EB03A74188D2
:1029C00089476306F702054723A2E188138501982A
:1029D000EF104027AA872322F4FE930744FE814686
:1029E0003E869385C1A913850198EF10F00B1385DE
:1029F0000198EF1080000547238CE1860100F2402A
:102A0000624405618280011106CE22CC0010A3072A
:102A100004FE230704FE231604FE01469305B006B8
:102A20001385C1B1EFE0DFFD1D46E5451385C1B15A
:102A3000EFE01FFD15A88357C4FE13871700231668
:102A4000E4FE1307F00F6376F70085472307F4FED3
:102A50000DA0E5451385C1B1EFF08F82AA87A307CA
:102A6000F4FE2945EFD0FFB00347F4FE9D47E31481
:102A7000F7FC8347E4FE3E85F240624405618280B4
:102A8000011106CE22CC0010930784FE99463E86A3
:102A90009305B0031385C1B1EFF04F89834784FEDE
:102AA000A207139707014187834794FEC207C18796
:102AB000D98F1397070141872397E1888347A4FEA5
:102AC000A2071397070141878347B4FEC207C18756
:102AD000D98F1397070141872398E1888347C4FE64
:102AE000A2071397070141878347D4FEC207C18716
:102AF000D98F1397070141872399E1880100F2409C
:102B0000624405618280011106CE22CC0010930739
:102B100084FE99463E86930530041385C1B1EFF0DB
:102B2000EF80834784FEA2071397070141878347FD
:102B300094FEC207C187D98F139707014187239459
:102B4000E1888347A4FEA2071397070141878347C3
:102B5000B4FEC207C187D98F139707014187239518
:102B6000E1888347C4FEA207139707014187834783
:102B7000D4FEC207C187D98F1397070141872396D7
:102B8000E1880100F240624405618280011106CEB5
:102B900022CC0010A30704FE130750029306300254
:102BA0000146930580061385C1B1EFF0AF87130589
:102BB0004006EFD01F9C813DAA8785C39306100C69
:102BC000C567138607A5C5679385C7AC0145EF00A8
:102BD000D0198547A307F4FEB1A801469305B006B6
:102BE0001385C1B1EFE0DFE11D46E5451385C1B1B5
:102BF000EFE01FE11146E9451385C1B1EFE05FE069
:102C00006146ED451385C1B1EFE09FDF4146F145D7
:102C10001385C1B1EFE0DFDE01469305A006138501
:102C2000C1B1EFE0FFDD0946930570031385C1B123
:102C3000EFE01FDD8347F4FE3E85F240624405610C
:102C40008280411122C60008010032444101828085
:102C5000411122C60008B71702409843B717024037
:102C60001367170098C3B7170240D443B717024041
:102C70003707FFF8758FD8C3B71702409443B717CB
:102C800002403707F7FE7D17758F98C3B7170240CC
:102C90009443B71702403707FCFF7D17758F98C321
:102CA000B7170240D443B7170240370781FF7D179B
:102CB000758FD8C3B717024037079F0098C7010028
:102CC000324441018280797106D622D40018232E25
:102CD000A4FCBD3F232604FE232404FEB7170240B4
:102CE0009443B71702404167558F98C3B717024006
:102CF0009843B7070200F98F2324F4FE8327C4FE0C
:102D000085072326F4FE832784FE91E70327C4FE6C
:102D10008567E31DF7FCB71702409843B707020029
:102D2000F98F89C785472324F4FE19A0232404FEC4
:102D3000032784FE85476312F71637170240B7173B
:102D400002405843D8C337170240B71702405843D0
:102D5000D8C337170240B71702405843D8C3B71734
:102D60000240D443B71702403707C1FF7D17758F64
:102D7000D8C30327C4FDB747950893870740631B53
:102D8000F700B7170240D443B71702404167558F89
:102D9000D8C355A80327C4FDB7172707938707E0B3
:102DA000631CF700B7170240D443B7170240370738
:102DB0003900558FD8C341A80327C4FDB7E7B8052C
:102DC00093870780631CF700B7170240D443B717F7
:102DD000024037072900558FD8C3B5A00327C4FD8B
:102DE000B7A74A0493870720631CF700B717024070
:102DF000D443B717024037071D00558FD8C3A1A091
:102E00000327C4FDB777DC02938707C0631CF70074
:102E1000B7170240D443B717024037071100558F48
:102E2000D8C315A00327C4FDB7376E019387076089
:102E3000631BF700B7170240D443B71702403707A8
:102E40000500558FD8C3B71702409443B717024007
:102E500037070001558F98C30100B7170240984308
:102E6000B7070002F98FF5DBB7170240D843B71751
:102E70000240719BD8C3B7170240D843B71702402E
:102E800013672700D8C30100B7170240DC4313F7CC
:102E9000C700A147E31AF7FE11A001A0B2502254C7
:102EA00045618280011106CE22CC00102326A4FEAB
:102EB0000327C4FE23AEE180613B0325C4FE213518
:102EC000EF1090540100F24062440561828041118C
:102ED00022C6000801000100324441018280011134
:102EE00006CE22CC0010232604FE232404FE232633
:102EF00004FE25A0232404FE39A0D13F832784FEAD
:102F000085072324F4FE032784FEC167E367F7FEE9
:102F10008327C4FE85072326F4FE0327C4FE9307F8
:102F2000F00FE3F9E7FC0100F240624405618280A2
:102F3000411122C600080100324441018280011182
:102F400006CE22CC00102326A4FE8325C4FE014514
:102F5000EFF0AF940100F2406244056182801301FA
:102F600001D9232611262324812623229126801C81
:102F7000232EA4D8232CB4D8232AC4D82328D4D8C9
:102F8000231504FE231404FE231304FE231204FE5F
:102F9000231104FE032584D9EFA01067AA87C20776
:102FA000C1872313F4FE83D781B889C7938781B87B
:102FB0009C4B829783C7418993F7F70F638D074A2C
:102FC00083D781B863870744938781B8D4478357F1
:102FD00024FE13970701418793170701C1838507D3
:102FE000C207C183C207C1872311F4FE93170701EB
:102FF000C1830326C4D9BE8501458296832784D91F
:103000002326F4FE032584D9EFA01060AA87C20707
:10301000C1872313F4FE938781B883D727003E87A7
:10302000938781B883C76700B347F702C207C18798
:103030002312F4FE01008327C4FE13871700232602
:10304000E4FE83870700E5FB231404FEA1A8832781
:10305000C4FEFD172326F4FE8327C4FE0387070062
:103060009307F002630AF7008327C4FE0387070073
:103070009307C005631BF700835784FEC207C18313
:103080008507C207C1832314F4FE835764FEC20779
:10309000C187C207C183FD17C207C183C207C187A9
:1030A0002313F4FE835784FE13970701418385475A
:1030B00063E8E700835764FEC207C187E3D907F8D6
:1030C000835764FEC207C18763C207028327C4FE19
:1030D00085072326F4FE130704EE0326C4FEC56706
:1030E000938507AF3A85EFA0D04D1DA8835784FE86
:1030F000C207C18381EF130704EE0326C4FEC56730
:103100009385C7AF3A85EFA0D04B19A8130704EEFB
:103110000326C4FEC567938507AF3A85EFA0704AC2
:10312000231504FE21AA231404FE59A0930704EEDC
:103130003E85EFA0704D2A87835784FEC207C18366
:10314000BE868357A4FEC207C1833E86835744FED2
:10315000C207C187B307F602B6976367F7068357BE
:1031600084FEC207C1833E878357A4FEC207C18382
:10317000BE86835744FEC207C187B387F602BA975B
:10318000035784FE42074183BA86130704FFBA97A8
:10319000038707EF930704FFB6972388E7EA83576F
:1031A00084FEC207C1838507C207C1832314F4FECE
:1031B000835784FEC207C1833E87835744FEC207FC
:1031C000C187E345F7F611A00100835784FEC207CB
:1031D000C183130704FFBA97238807EA938781B84E
:1031E00003A8C700938781B883C7770013970701A7
:1031F0004183835724FE93960701C1869397060166
:10320000C1838507C207C183C207C1872311F4FEAA
:1032100093970601C183B307F702C207C18313075F
:1032200004EA3A86BE85014502988357A4FEC20788
:10323000C1838507C207C1832315F4FE8357A4FE0B
:10324000C207C183BE84930704EE3E85EFA0D03B46
:103250002A87835744FEC207C187B357F702850701
:10326000E3E3F4EC130704EE032644D9C567938522
:10327000C7B03A85EFA0F034938781B803A8C700A0
:10328000938781B883C777001397070141838357DA
:1032900024FE93960701C18693970601C183850793
:1032A000C207C183C207C1872311F4FE93970601A9
:1032B000C183B307F702C207C183130704EE3A863E
:1032C000BE8501450298832704D96386071A231512
:1032D00004FE21AA231404FE59A0032504D9EFA05B
:1032E000B0322A87835784FEC207C183BE868357C4
:1032F000A4FEC207C1833E86835744FEC207C1872E
:10330000B307F602B6976368F706835784FEC207D1
:10331000C1833E878357A4FEC207C183BE868357FD
:1033200044FEC207C187B387F602BA973E87832758
:1033300004D9BA97035784FE42074183BA860387AC
:103340000700930704FFB6972388E7EA835784FEB4
:10335000C207C1838507C207C1832314F4FE8357C4
:1033600084FEC207C1833E87835744FEC207C187DC
:10337000E345F7F611A00100835784FEC207C1831D
:10338000130704FFBA97238807EA938781B803A835
:10339000C700938781B883C77700139707014183DC
:1033A000835724FE93960701C18693970601C18334
:1033B0008507C207C183C207C1872311F4FE939713
:1033C0000601C183B307F702C207C183130704EAEA
:1033D0003A86BE85014502988357A4FEC207C18381
:1033E0008507C207C1832315F4FE8357A4FEC207D5
:1033F000C183BE84032504D9EFA010212A878357F7
:1034000044FEC207C187B357F7028507E3E4F4EC33
:103410009DA0930704DA1306001081453E85EFC096
:103420003FDE938781B89C470325C4D982978327C1
:1034300004D999CF130504DA032704D9832644D984
:10344000032684D9C567938587B1EFA0901729A873
:10345000130704DA832644D9032684D9C5679385E4
:1034600047B33A85EFA0F015938781B89847930743
:1034700004DA3E85029701008320C12603248126B9
:1034800083244126130101278280797106D622D434
:103490000018232EA4FC232CB4FC232AC4FC2326CE
:1034A00004FE99A00100C56783A707DA930500040D
:1034B0003E85EF50E03BAA87FDD7C56783A707DAB3
:1034C000BE86832784FD13871700232CE4FC8387A3
:1034D0000700C207C183BE853685EF50803683273B
:1034E000C4FE85072326F4FE0327C4FE832744FD7C
:1034F000E34AF7FA832744FD3E85B25022544561E2
:103500008280011106CE22CC0010AA872324B4FEAB
:103510002322C4FEA307F4FE8347F4FEB1E383C76E
:10352000018293F7F70F8DCF83C7518991C301A013
:1035300083C75189850713F7F70FA38AE188EF1036
:10354000006AEFF0FF9E8146032644FE832584FE39
:10355000C5671385C7B4EFF09FA0EFF05F98E5B79C
:103560000100F240624405618280011106CE22CC46
:103570000010AA872324B4FE2322C4FE2320D4FEF5
:10358000A307F4FE8347F4FE95E383C7418993F7CD
:10359000F70F91CF832684FE032604FE832544FE85
:1035A000C5671385C7B5EFF09F9B11A0010001000F
:1035B000F240624405618280011122CE0010232670
:1035C000A4FE8327C4FE239007008327C4FE7D57F3
:1035D0002391E7008327C4FE7D572392E7008327CA
:1035E000C4FE7D572383E7008327C4FE7D57A38352
:1035F000E7008327C4FE23A407008327C4FE23A675
:1036000007008327C4FE23A8070001007244056158
:103610008280011122CE00102326A4FE8327C4FE3F
:1036200003D707002394E1B88327C4FE03D72700FC
:10363000938781B82391E7008327C4FE03D747000F
:10364000938781B82392E7008327C4FE03C76700EE
:10365000938781B82383E7008327C4FE03C77700DD
:10366000938781B8A383E7008327C4FE9847938795
:1036700081B898C78327C4FED847938781B8D8C735
:103680008327C4FE984B938781B898CB0547238A3C
:10369000E1880100724405618280797106D622D4E6
:1036A00000189307C4FD3E85013FB737000093879C
:1036B000E7F32322F4FE9307C4FD3E85993FA94614
:1036C0002546F167938507200145EFE03FB193065A
:1036D00000041386C1B281451385C1B6EF100017EF
:1036E00085450145EFE07FA10100B25022544561BC
:1036F0008280011122CE00102326A4FE2324B4FED2
:103700008327C4FE03C7970083C6A700A206558F70
:1037100083C6B700C206558F83C7C700E207D98F9B
:103720003E87832784FE3E978327C4FE9375F70F59
:1037300083C69700818A3686AE86D18EA384D70051
:103740009356870093F5F60F83C6A700818A3686C5
:10375000AE86D18E2385D7009356070193F5F60FD9
:1037600083C6B700818A3686AE86D18EA385D70000
:103770001356870103C7C700018BBA863287558F5E
:103780002386E70055A08327C4FE03C7970083C69E
:10379000A700A206558F83C6B700C206558F83C700
:1037A000C700E207D98F3E868327C4FE03C75701AF
:1037B00083C66701A206558F83C67701C206558F5F
:1037C00083C78701E207D98F3307F6408327C4FEFA
:1037D0009375F70F83C69700818A3686AE86D18EA1
:1037E000A384D7009356870093F5F60F83C6A700EE
:1037F000818A3686AE86D18E2385D70093560701FF
:1038000093F5F60F83C6B700818A3686AE86D18ED1
:10381000A385D7001356870103C7C700018BBA865B
:103820003287558F2386E7008327C4FE03C75701DD
:1038300083C66701A206558F83C67701C206558FDE
:1038400083C78701E207D98F3E868327C4FE03C75B
:10385000970083C6A700A206558F83C6B700C2068D
:10386000558F83C7C700E207D98FE3FEC7F0010079
:10387000724405618280011122CE00102326A4FE2D
:103880002324B4FE8327C4FE03C7D70083C6E70002
:10389000A206558F83C6F700C206558F83C707015E
:1038A000E207D98F3E87832784FE3E978327C4FE95
:1038B0009375F70F83C6D700818A3686AE86D18E80
:1038C000A386D7009356870093F5F60F83C6E700CB
:1038D000818A3686AE86D18E2387D700935607011C
:1038E00093F5F60F83C6F700818A3686AE86D18EB1
:1038F000A387D7001356870103C70701018BBA8638
:103900003287558F2388E70055A08327C4FE03C75D
:10391000D70083C6E700A206558F83C6F700C2060C
:10392000558F83C70701E207D98F3E868327C4FEE0
:1039300003C7570183C66701A206558F83C6770167
:10394000C206558F83C78701E207D98F3307F64038
:103950008327C4FE9375F70F83C6D700818A368606
:10396000AE86D18EA386D7009356870093F5F60FC7
:1039700083C6E700818A3686AE86D18E2387D7003C
:103980009356070193F5F60F83C6F700818A3686B2
:10399000AE86D18EA387D7001356870103C70701D0
:1039A000018BBA863287558F2388E7008327C4FEB0
:1039B00003C7570183C66701A206558F83C67701E7
:1039C000C206558F83C78701E207D98F3E868327BA
:1039D000C4FE03C7D70083C6E700A206558F83C67F
:1039E000F700C206558F83C70701E207D98FE3FEB0
:1039F000C7F00100724405618280797106D622D435
:103A00000018232EA4FC8327C4FDB337F00093F7DE
:103A1000F70F3E8713065005C567938587B63A852D
:103A2000EFF03FAE232604FE8327C4FD83C70700C3
:103A300093E7170013F7F70F8327C4FD2380E700F0
:103A40008327C4FD03C79700018BA384E70003C746
:103A5000A700018B2385E70003C7B700018BA3856F
:103A6000E70003C7C700018B2386E7008327C4FD57
:103A700003C7D700018BA386E70003C7E700018BCC
:103A80002387E70003C7F700018BA387E70003C77D
:103A90000701018B2388E7008327C4FD03C7570173
:103AA00083C66701A206558F83C67701C206558F6C
:103AB00083C78701E207D98F3E878327C4FD9375AB
:103AC000F70F83C61701818A3686AE86D18EA3880A
:103AD000D7009356870093F5F60F83C62701818A96
:103AE0003686AE86D18E2389D7009356070193F58B
:103AF000F60F83C63701818A3686AE86D18EA389BA
:103B0000D7001356870103C74701018BBA86328756
:103B1000558F238AE7008327C4FD03C7170083C698
:103B20002700A206558F83C63700C206558F83C76C
:103B30004700E207D98F0547638DE70489C7094726
:103B40006380E70AEDA08327C4FD03C7570083C63F
:103B50006700A206558F83C67700C206558F83C7BC
:103B60008700E207D98F3E858327C4FD03C757012D
:103B700083C66701A206558F83C67701C206558F9B
:103B800083C78701E207D98F3E868145EFC04FE7A3
:103B900079A88327C4FD03C7570083C66700A20620
:103BA000558F83C67700C206558F83C78700E2070B
:103BB000D98F3E858327C4FD03C7570183C667019C
:103BC000A206558F83C67701C206558F83C787012A
:103BD000E207D98F86073E868145EFC06FE281A854
:103BE0008327C4FD03C7570083C66700A206558F0D
:103BF00083C67700C206558F83C78700E207D98F37
:103C00003E858327C4FD03C7570183C66701A2060B
:103C1000558F83C67701C206558F83C78701E20798
:103C2000D98F8A073E868145EFC08FDD010083274B
:103C3000C4FD238007008327C4FE3E85B250225472
:103C400045618280011106CE22CC00102326A4FEFD
:103C50008327C4FEB337F00093F7F70F3E871306B0
:103C60006007C567938587B63A85EFF09F898327FC
:103C7000C4FE03C7570183C66701A206558F83C6DA
:103C80007701C206558F83C78701E207D98F3E8629
:103C90008327C4FE03C7170183C62701A206558FD9
:103CA00083C63701C206558F83C74701E207D98F04
:103CB000B307F6403E85F240624405618280797127
:103CC00006D622D40018232EA4FC232CB4FC232ACD
:103CD000C4FC8327C4FDB337F00093F7F70F3E878A
:103CE0001306000BC567938587B63A85EFF07F8191
:103CF000232604FE232404FE832784FD89E78D47C1
:103D00002326F4FE59AB8327C4FD83C70700958B98
:103D100093F7F70F89C791472326F4FEBDAB83279E
:103D2000C4FD83C7070093E7470013F7F70F832706
:103D3000C4FD2380E7008327C4FD03C7170183C6A2
:103D40002701A206558F83C63701C206558F83C748
:103D50004701E207D98F3E87832744FD6361F7520D
:103D60008327C4FD03C7570183C66701A206558F89
:103D700083C67701C206558F83C78701E207D98FB3
:103D80003E868327C4FD03C7970083C6A700A2060B
:103D9000558F83C6B700C206558F83C7C700E20799
:103DA000D98FB307F6402324F4FE032744FD83276D
:103DB00084FE63F3E72E8327C4FD03C7170083C681
:103DC0002700A206558F83C63700C206558F83C7CA
:103DD0004700E207D98F05476385E70E89C7094782
:103DE0006386E71C11A98327C4FD03C7570083C658
:103DF0006700A206558F83C67700C206558F83C71A
:103E00008700E207D98F3E868327C4FD03C797004A
:103E100083C6A700A206558F83C6B700C206558F7A
:103E200083C7C700E207D98FB297032684FE832594
:103E300084FD3E85EF90402F832584FE0325C4FD3D
:103E4000EFF03F8B8327C4FD03C7570083C667008D
:103E5000A206558F83C67700C206558F83C7870099
:103E6000E207D98F3E868327C4FD03C7970083C628
:103E7000A700A206558F83C6B700C206558F83C719
:103E8000C700E207D98FB306F600032784FD832716
:103E900084FEB305F700032744FD832784FEB307A0
:103EA000F7403E863685EF902028032744FD832780
:103EB00084FEB307F740BE850325C4FDEFF07F8382
:103EC00025AE8327C4FD03C7570083C66700A2063B
:103ED000558F83C67700C206558F83C78700E207D8
:103EE000D98F3E868327C4FD03C7970083C6A700EA
:103EF000A206558F83C6B700C206558F83C7C70079
:103F0000E207D98F86073307F600832784FE8607EA
:103F10003E86832584FD3A85EF900021832584FE2B
:103F20000325C4FDEFF0EFFC8327C4FD03C7570052
:103F300083C66700A206558F83C67700C206558FD9
:103F400083C78700E207D98F3E868327C4FD03C756
:103F5000970083C6A700A206558F83C6B700C20686
:103F6000558F83C7C700E207D98F8607B306F600CF
:103F7000832784FE8607032784FDB305F700032704
:103F800044FD832784FEB307F74086073E863685C7
:103F9000EF908019032744FD832784FEB307F74081
:103FA000BE850325C4FDEFF0CFF4B9A48327C4FD7B
:103FB00003C7570083C66700A206558F83C67700E4
:103FC000C206558F83C78700E207D98F3E868327B5
:103FD000C4FD03C7970083C6A700A206558F83C6FA
:103FE000B700C206558F83C7C700E207D98F8A077B
:103FF0003307F600832784FE8A073E86832584FDE7
:104000003A85EF906012832584FE0325C4FDEFF00E
:104010004FEE8327C4FD03C7570083C66700A2067F
:10402000558F83C67700C206558F83C78700E20786
:10403000D98F3E868327C4FD03C7970083C6A70098
:10404000A206558F83C6B700C206558F83C7C70027
:10405000E207D98F8A07B306F600832784FE8A0712
:10406000032784FDB305F700032744FD832784FE5F
:10407000B307F7408A073E863685EF90E00A0327AC
:1040800044FD832784FEB307F740BE850325C4FDA6
:10409000EFF02FE601008DA28327C4FD03C71700B0
:1040A00083C62700A206558F83C63700C206558FE8
:1040B00083C74700E207D98F05476387E70689C7AB
:1040C00009476387E70C0DAA8327C4FD03C7570080
:1040D00083C66700A206558F83C67700C206558F38
:1040E00083C78700E207D98F3E868327C4FD03C7B5
:1040F000970083C6A700A206558F83C6B700C206E5
:10410000558F83C7C700E207D98FB297032644FDB6
:10411000832584FD3E85EF902001832544FD032502
:10412000C4FDEFF00FDDC9A88327C4FD03C7570006
:1041300083C66700A206558F83C67700C206558FD7
:1041400083C78700E207D98F3E868327C4FD03C754
:10415000970083C6A700A206558F83C6B700C20684
:10416000558F83C7C700E207D98F86073307F6004C
:10417000832744FD86073E86832584FD3A85EF80AC
:10418000B07A832544FD0325C4FDEFF08FD6ADA0A2
:104190008327C4FD03C7570083C66700A206558F57
:1041A00083C67700C206558F83C78700E207D98F81
:1041B0003E868327C4FD03C7970083C6A700A206D7
:1041C000558F83C6B700C206558F83C7C700E20765
:1041D000D98F8A073307F600832744FD8A073E8676
:1041E000832584FD3A85EF803074832544FD0325C3
:1041F000C4FDEFF00FD001008327C4FD03C71701F2
:1042000083C62701A206558F83C63701C206558F84
:1042100083C74701E207D98F3E87832744FD1D8F5F
:104220008327C4FD9375F70F83C61701818A3686ED
:10423000AE86D18EA388D7009356870093F5F60FEC
:1042400083C62701818A3686AE86D18E2389D70020
:104250009356070193F5F60F83C63701818A368698
:10426000AE86D18EA389D7001356870103C74701B5
:10427000018BBA863287558F238AE70021A09547A4
:104280002326F4FE8327C4FD83C70700ED9B13F7A5
:10429000F70F8327C4FD2380E7008327C4FE3E85F4
:1042A000B250225445618280797106D622D400181A
:1042B000232EA4FC232CB4FC232AC4FC2328D4FCE6
:1042C0008327C4FDB337F00093F7F70F3E8713063B
:1042D0001016C567938587B63A85EFF08FA28327BE
:1042E00044FDB337F00093F7F70F3E87130620160F
:1042F000C567938587B63A85EFF0AFA0232604FE05
:10430000232404FE232204FE832784FD89E78D47AE
:104310002326F4FEA9A18327C4FD83C707008D8B44
:1043200093F7F70F91CB832744FD032744FE98C3EF
:1043300099472326F4FE21A30325C4FDEFF09F90A7
:104340002322A4FE832744FD9C43032744FE637974
:10435000F702832744FD032744FE98C39D47232685
:10436000F4FE832744FE89EF8327C4FD83C707003B
:10437000DD9B13F7F70F8327C4FD2380E700C1A15E
:104380008327C4FD83C7070093E7870013F7F70F60
:104390008327C4FD2380E7008327C4FD03C757019B
:1043A00083C66701A206558F83C67701C206558F63
:1043B00083C78701E207D98F3E868327C4FD03C7E1
:1043C000D70083C6E700A206558F83C6F700C20652
:1043D000558F83C70701E207D98FB307F64023241F
:1043E000F4FE832744FD9C43032784FE6366F71491
:1043F0008327C4FD03C7170083C62700A206558F75
:1044000083C63700C206558F83C74700E207D98F9E
:1044100005476384E70689C70947638FE70A2DA626
:104420008327C4FD03C7570083C66700A206558FC4
:1044300083C67700C206558F83C78700E207D98FEE
:104440003E868327C4FD03C7D70083C6E700A206C4
:10445000558F83C6F700C206558F83C70701E20751
:10446000D98F3307F600832744FD9C433E86BA85E7
:10447000032584FDEF80504BC1AC8327C4FD03C7E7
:10448000570083C66700A206558F83C67700C20611
:10449000558F83C78700E207D98F3E868327C4FDE7
:1044A00003C7D70083C6E700A206558F83C6F7006F
:1044B000C206558F83C70701E207D98F86073307E6
:1044C000F600832744FD9C4386073E86BA85032574
:1044D00084FDEF8070458DAC8327C4FD03C7570072
:1044E00083C66700A206558F83C67700C206558F24
:1044F00083C78700E207D98F3E868327C4FD03C7A1
:10450000D70083C6E700A206558F83C6F700C20610
:10451000558F83C70701E207D98F8A073307F60053
:10452000832744FD9C438A073E86BA85032584FD84
:10453000EF80903F010009AC8327C4FD03C717003B
:1045400083C62700A206558F83C63700C206558F43
:1045500083C74700E207D98F05476383E70A89C706
:1045600009476381E714CDA28327C4FD03C7570021
:1045700083C66700A206558F83C67700C206558F93
:1045800083C78700E207D98F3E868327C4FD03C710
:10459000D70083C6E700A206558F83C6F700C20680
:1045A000558F83C70701E207D98FB297032684FE90
:1045B000BE85032584FDEF803037032784FD8327E4
:1045C00084FE3305F7008327C4FD03C7570083C665
:1045D0006700A206558F83C67700C206558F83C732
:1045E0008700E207D98FBE86832744FD984383273F
:1045F00084FEB307F7403E86B685EF80F032A9A26D
:104600008327C4FD03C7570083C66700A206558FE2
:1046100083C67700C206558F83C78700E207D98F0C
:104620003E868327C4FD03C7D70083C6E700A206E2
:10463000558F83C6F700C206558F83C70701E2076F
:10464000D98F86073307F600832784FE86073E86C8
:10465000BA85032584FDEF80302D832784FE8607ED
:10466000032784FD3305F7008327C4FD03C75700E4
:1046700083C66700A206558F83C67700C206558F92
:1046800083C78700E207D98FBE86832744FD9843FE
:10469000832784FEB307F74086073E86B685EF8002
:1046A000B0285DA08327C4FD03C7570083C66700F9
:1046B000A206558F83C67700C206558F83C7870031
:1046C000E207D98F3E868327C4FD03C7D70083C680
:1046D000E700A206558F83C6F700C206558F83C731
:1046E0000701E207D98F8A073307F600832784FE84
:1046F0008A073E86BA85032584FDEF80F022832752
:1047000084FE8A07032784FD3305F7008327C4FD51
:1047100003C7570083C66700A206558F83C677007C
:10472000C206558F83C78700E207D98FBE868327CD
:1047300044FD9843832784FEB307F7408A073E86EB
:10474000B685EF80701E01008327C4FD83C7070074
:10475000DD9B13F7F70F8327C4FD2380E700832732
:1047600004FDF1EF8327C4FD03C70700AD476316BF
:10477000F70089472326F4FED9A08327C4FD83C709
:10478000070093E7270013F7F70F8327C4FD238063
:10479000E700832744FD9C43BE850325C4FDEFF05D
:1047A0008F8D8327C4FD03C7170183C62701A20687
:1047B000558F83C63701C206558F83C74701E2076D
:1047C000D98F3E87832744FD9C433E978327C4FDB2
:1047D0009375F70F83C61701818A3686AE86D18E10
:1047E000A388D7009356870093F5F60F83C6270159
:1047F000818A3686AE86D18E2389D70093560701EB
:1048000093F5F60F83C63701818A3686AE86D18E40
:10481000A389D7001356870103C74701018BBA86C6
:104820003287558F238AE7008327C4FD83C707009B
:10483000F59B13F7F70F8327C4FD2380E700832739
:10484000C4FE3E85B250225445618280797106D6FD
:1048500022D40018232EA4FC232CB4FC232AC4FC4D
:104860002328D4FC8327C4FDB337F00093F7F70F58
:104870003E8713062022C567938587B63A85EFE009
:104880005FC8232604FE8327C4FD032744FD137657
:10489000F70F03C75700018BBA863287558FA38263
:1048A000E700032744FD21831376F70F03C7670052
:1048B000018BBA863287558F2383E700032744FD97
:1048C00041831376F70F03C77700018BBA863287CF
:1048D000558FA383E700032744FD1356870103C7C1
:1048E0008700018BBA863287558F2384E7008327A0
:1048F000C4FD238007008327C4FD032784FD1376AE
:10490000F70F03C71700018BBA863287558FA38034
:10491000E700032784FD21831376F70F03C72700E1
:10492000018BBA863287558F2381E700032784FDE8
:1049300041831376F70F03C73700018BBA8632879E
:10494000558FA381E700032784FD1356870103C712
:104950004700018BBA863287558F2382E700832771
:10496000C4FD03C79700018BA384E70003C7A7001A
:10497000018B2385E70003C7B700018BA385E70000
:1049800003C7C700018B2386E7008327C4FD03C745
:10499000D700018BA386E70003C7E700018B2387BD
:1049A000E70003C7F700018BA387E70003C70701F0
:1049B000018B2388E7008327C4FD032704FD1376BA
:1049C000F70F03C71701018BBA863287558FA3886B
:1049D000E700032704FD21831376F70F03C72701A0
:1049E000018BBA863287558F2389E700032704FDA0
:1049F00041831376F70F03C73701018BBA863287DD
:104A0000558FA389E700032704FD1356870103C7C9
:104A10004701018BBA863287558F238AE7008327A7
:104A2000C4FD032704FD1376F70F03C75701018B5D
:104A3000BA863287558FA38AE700032704FD2183B6
:104A40001376F70F03C76701018BBA863287558F3C
:104A5000238BE700032704FD41831376F70F03C779
:104A60007701018BBA863287558FA38BE700032726
:104A700004FD1356870103C78701018BBA8632876D
:104A8000558F238CE7008327C4FE3E85B250225405
:104A900045618280411122C6000899679387870883
:104AA000739007800100324441018280411122C687
:104AB00000089967739007800100324441018280A9
:104AC000011122CE00102326A4FE8327C4FEFD8BF5
:104AD0000547B316F70037E700E08327C4FE958348
:104AE000938707048A07BA9794C30100724405614B
:104AF0008280011122CE00102326A4FE8327C4FE4B
:104B0000FD8B0547B316F70037E700E08327C4FEA7
:104B10009583938707068A07BA9794C30100724466
:104B200005618280011122CE00102326A4FEAE87EB
:104B3000A305F4FE37E700E08327C4FEBA970347D6
:104B4000B4FE2380E74001007244056182800111B8
:104B500006CE22CC00102326A4FE0325C4FE8D37EA
:104B60000100F240624405618280011106CE22CC30
:104B700000102326A4FE0325C4FEA53F0100F24039
:104B8000624405618280011106CE22CC00102326EA
:104B9000A4FEAE87A305F4FE8347B4FEBE850325BD
:104BA000C4FE49370100F240624405618280011170
:104BB00006CE22CC00102326A4FE8327C4FE99C76C
:104BC00083A781891387F7FF23ACE18883A78189B5
:104BD00091E3C9350100F2406244056182804111D0
:104BE00006C622C4000883A7818991E3C13583A743
:104BF00081891387170023ACE18883A781893E85CB
:104C0000B240224441018280411106C622C40008FC
:104C10000145713F0100B24022444101828035715B
:104C200006CF16CD1ACB1EC922C72AC52EC332C144
:104C3000B6DEBADCBEDAC2D8C6D6F2D4F6D2FAD024
:104C4000FECE82E686E48AE28EE012FE16FC1AFAB6
:104C50001EF82AF62EF432F236F03AEE3EEC42EA34
:104C600046E872E676E47AE27EE00011930550525F
:104C7000B747014013850780EF30F043AA8789CBFF
:104C800093055052B747014013850780EF30D0524B
:104C90000100FA40EA425A43CA433A442A459A4537
:104CA0000A46F6566657D6574658B658265E965E5A
:104CB000065FF64F3660A660166186617272E27218
:104CC0005273C2733275A275127682767267E2678A
:104CD0005268C268326EA26E126F826F0D617300ED
:104CE0002030357106CF16CD1ACB1EC922C72AC572
:104CF0002EC332C1B6DEBADCBEDAC2D8C6D6F2D412
:104D0000F6D2FAD0FECE82E686E48AE28EE012FE89
:104D100016FC1AFA1EF82AF62EF432F236F03AEEA3
:104D20003EEC42EA46E872E676E47AE27EE0001182
:104D300093055052B747004013850740EF30B03716
:104D4000AA8789CB93055052B74700401385074087
:104D5000EF3090460100FA40EA425A43CA433A44CF
:104D60002A459A450A46F6566657D6574658B658C3
:104D7000265E965E065FF64F3660A6601661866117
:104D80007272E2725273C2733275A27512768276B3
:104D90007267E2675268C268326EA26E126F826FEB
:104DA0000D6173002030357106CF16CD1ACB1EC9A8
:104DB00022C72AC52EC332C1B6DEBADCBEDAC2D8DB
:104DC000C6D6F2D4F6D2FAD0FECE82E686E48AE2E5
:104DD0008EE012FE16FC1AFA1EF82AF62EF432F2B3
:104DE00036F03AEE3EEC42EA46E872E676E47AE2E3
:104DF0007EE0001193055052B7570040138507809D
:104E0000EF30702BAA8789CB93055052B7570040DB
:104E100013850780EF30503A0100FA40EA425A43C6
:104E2000CA433A442A459A450A46F6566657D65723
:104E30004658B658265E965E065FF64F3660A66008
:104E4000166186617272E2725273C2733275A27514
:104E5000127682767267E2675268C268326EA26E1C
:104E6000126F826F0D6173002030357106CF16CD41
:104E70001ACB1EC922C72AC52EC332C1B6DEBADC80
:104E8000BEDAC2D8C6D6F2D4F6D2FAD0FECE82E6C8
:104E900086E48AE28EE012FE16FC1AFA1EF82AF662
:104EA0002EF432F236F03AEE3EEC42EA46E872E692
:104EB00076E47AE27EE0001193055052B757004045
:104EC000138507C0EF30301FAA8789CB9305505256
:104ED000B7570040138507C0EF30102E0100FA408D
:104EE000EA425A43CA433A442A459A450A46F65684
:104EF0006657D6574658B658265E965E065FF64FFA
:104F00003660A660166186617272E2725273C27375
:104F10003275A275127682767267E2675268C2684D
:104F2000326EA26E126F826F0D6173002030357188
:104F300006CF16CD1ACB1EC922C72AC52EC332C131
:104F4000B6DEBADCBEDAC2D8C6D6F2D4F6D2FAD011
:104F5000FECE82E686E48AE28EE012FE16FC1AFAA3
:104F60001EF82AF62EF432F236F03AEE3EEC42EA21
:104F700046E872E676E47AE27EE00011930550524C
:104F800037550040EF303013AA8791CB83A7C180FB
:104F900082979305505237550040EF30F0210100C1
:104FA000FA40EA425A43CA433A442A459A450A46D5
:104FB000F6566657D6574658B658265E965E065F32
:104FC000F64F3660A660166186617272E2725273A5
:104FD000C2733275A275127682767267E267526882
:104FE000C268326EA26E126F826F0D617300203044
:104FF000357106CF16CD1ACB1EC922C72AC52EC3BE
:1050000032C1B6DEBADCBEDAC2D8C6D6F2D4F6D227
:10501000FAD0FECE82E686E48AE28EE012FE16FC2C
:105020001AFA1EF82AF62EF432F236F03AEE3EEC78
:1050300042EA46E872E676E47AE27EE00011930501
:105040005052B727004013850780EF30D006AA875B
:1050500089CB93055052B727004013850780EF3066
:10506000B0150100FA40EA425A43CA433A442A457D
:105070009A450A46F6566657D6574658B658265E9B
:10508000965E065FF64F3660A660166186617272A4
:10509000E2725273C2733275A275127682767267AB
:1050A000E2675268C268326EA26E126F826F0D6143
:1050B00073002030357106CF16CD1ACB1EC922C71A
:1050C0002AC52EC332C1B6DEBADCBEDAC2D8C6D615
:1050D000F2D4F6D2FAD0FECE82E686E48AE28EE000
:1050E00012FE16FC1AFA1EF82AF62EF432F236F0E8
:1050F0003AEE3EEC42EA46E872E676E47AE27EE098
:10510000001193055052B7270040138507C0EF30B8
:10511000807AAA8781CF83A74181829793055052D5
:10512000B7270040138507C0EF3010090100FA408F
:10513000EA425A43CA433A442A459A450A46F65631
:105140006657D6574658B658265E965E065FF64FA7
:105150003660A660166186617272E2725273C27323
:105160003275A275127682767267E2675268C268FB
:10517000326EA26E126F826F0D6173002030357136
:1051800006CF16CD1ACB1EC922C72AC52EC332C1DF
:10519000B6DEBADCBEDAC2D8C6D6F2D4F6D2FAD0BF
:1051A000FECE82E686E48AE28EE012FE16FC1AFA51
:1051B0001EF82AF62EF432F236F03AEE3EEC42EACF
:1051C00046E872E676E47AE27EE0001193055052FA
:1051D00037250040EF30206EAA8789CBEFD0EFEC67
:1051E0009305505237250040EF30007D0100FA4012
:1051F000EA425A43CA433A442A459A450A46F65671
:105200006657D6574658B658265E965E065FF64FE6
:105210003660A660166186617272E2725273C27362
:105220003275A275127682767267E2675268C2683A
:10523000326EA26E126F826F0D6173002030357175
:1052400006CF16CD1ACB1EC922C72AC52EC332C11E
:10525000B6DEBADCBEDAC2D8C6D6F2D4F6D2FAD0FE
:10526000FECE82E686E48AE28EE012FE16FC1AFA90
:105270001EF82AF62EF432F236F03AEE3EEC42EA0E
:1052800046E872E676E47AE27EE00011B707055060
:1052900083C7070193F7F70F918B8DC383A7018114
:1052A0008297B707055083C7070113F7F70FB707B2
:1052B00005506D9B1377F70F2388E7000100FA4034
:1052C000EA425A43CA433A442A459A450A46F656A0
:1052D0006657D6574658B658265E965E065FF64F16
:1052E0003660A660166186617272E2725273C27392
:1052F0003275A275127682767267E2675268C2686A
:10530000326EA26E126F826F0D61730020303571A4
:1053100006CF16CD1ACB1EC922C72AC52EC332C14D
:10532000B6DEBADCBEDAC2D8C6D6F2D4F6D2FAD02D
:10533000FECE82E686E48AE28EE012FE16FC1AFABF
:105340001EF82AF62EF432F236F03AEE3EEC42EA3D
:1053500046E872E676E47AE27EE000110545EF1059
:10536000A0292A8785476315F7000545EF10202EF1
:105370000100FA40EA425A43CA433A442A459A4550
:105380000A46F6566657D6574658B658265E965E73
:10539000065FF64F3660A660166186617272E27231
:1053A0005273C2733275A275127682767267E267A3
:1053B0005268C268326EA26E126F826F0D61730006
:1053C0002030357106CF16CD1ACB1EC922C72AC58B
:1053D0002EC332C1B6DEBADCBEDAC2D8C6D6F2D42B
:1053E000F6D2FAD0FECE82E686E48AE28EE012FEA3
:1053F00016FC1AFA1EF82AF62EF432F236F03AEEBD
:105400003EEC42EA46E872E676E47AE27EE000119B
:105410000945EF10601E2A8785476315F700094587
:10542000EF10E0220100FA40EA425A43CA433A44EC
:105430002A459A450A46F6566657D6574658B658EC
:10544000265E965E065FF64F3660A6601661866140
:105450007272E2725273C2733275A27512768276DC
:105460007267E2675268C268326EA26E126F826F14
:105470000D6173002030357106CF16CD1ACB1EC9D1
:1054800022C72AC52EC332C1B6DEBADCBEDAC2D804
:10549000C6D6F2D4F6D2FAD0FECE82E686E48AE20E
:1054A0008EE012FE16FC1AFA1EF82AF62EF432F2DC
:1054B00036F03AEE3EEC42EA46E872E676E47AE20C
:1054C0007EE000111145EF1020132A8785476315F0
:1054D000F7001145EF10A0170100FA40EA425A43C5
:1054E000CA433A442A459A450A46F6566657D6575D
:1054F0004658B658265E965E065FF64F3660A66042
:10550000166186617272E2725273C2733275A2754D
:10551000127682767267E2675268C268326EA26E55
:10552000126F826F0D6173002030357106CF16CD7A
:105530001ACB1EC922C72AC52EC332C1B6DEBADCB9
:10554000BEDAC2D8C6D6F2D4F6D2FAD0FECE82E601
:1055500086E48AE28EE012FE16FC1AFA1EF82AF69B
:105560002EF432F236F03AEE3EEC42EA46E872E6CB
:1055700076E47AE27EE000112145EF10E0072A8709
:1055800085476315F7002145EF10600C0100FA40D4
:10559000EA425A43CA433A442A459A450A46F656CD
:1055A0006657D6574658B658265E965E065FF64F43
:1055B0003660A660166186617272E2725273C273BF
:1055C0003275A275127682767267E2675268C26897
:1055D000326EA26E126F826F0D61730020303571D2
:1055E00006CF16CD1ACB1EC922C72AC52EC332C17B
:1055F000B6DEBADCBEDAC2D8C6D6F2D4F6D2FAD05B
:10560000FECE82E686E48AE28EE012FE16FC1AFAEC
:105610001EF82AF62EF432F236F03AEE3EEC42EA6A
:1056200046E872E676E47AE27EE000114145EF005A
:10563000B07C2A8785476315F7004145EF102001AC
:105640000100FA40EA425A43CA433A442A459A457D
:105650000A46F6566657D6574658B658265E965EA0
:10566000065FF64F3660A660166186617272E2725E
:105670005273C2733275A275127682767267E267D0
:105680005268C268326EA26E126F826F0D61730033
:105690002030357106CF16CD1ACB1EC922C72AC5B8
:1056A0002EC332C1B6DEBADCBEDAC2D8C6D6F2D458
:1056B000F6D2FAD0FECE82E686E48AE28EE012FED0
:1056C00016FC1AFA1EF82AF62EF432F236F03AEEEA
:1056D0003EEC42EA46E872E676E47AE27EE00011C9
:1056E00013050002EF0050712A8785476316F70003
:1056F00013050002EF00B07513050004EF00D06F32
:105700002A8785476316F70013050004EF003074FD
:1057100013050008EF00506E2A8785476316F700CF
:1057200013050008EF00B07213050010EF00D06CF5
:105730002A8785476316F70013050010EF003071C4
:1057400013050020EF00506B2A8785476316F7008A
:1057500013050020EF00B06F0100FA40EA425A43FF
:10576000CA433A442A459A450A46F6566657D657DA
:105770004658B658265E965E065FF64F3660A660BF
:10578000166186617272E2725273C2733275A275CB
:10579000127682767267E2675268C268326EA26ED3
:1057A000126F826F0D6173002030357106CF16CDF8
:1057B0001ACB1EC922C72AC52EC332C1B6DEBADC37
:1057C000BEDAC2D8C6D6F2D4F6D2FAD0FECE82E67F
:1057D00086E48AE28EE012FE16FC1AFA1EF82AF619
:1057E0002EF432F236F03AEE3EEC42EA46E872E649
:1057F00076E47AE27EE0001113050040EF00D05F0E
:105800002A8785476316F70013050040EF003064D0
:10581000856713850780EF00305E2A878547631709
:10582000F700856713850780EF0070620565EF005C
:10583000B05C2A8785476315F7000565EF00306186
:105840000965EF00705B2A8785476318F70083A717
:10585000818182970965EF00905F1165EF00D05953
:105860002A8785476317F700EFD00F811165EF0096
:10587000105E2165EF0050582A8785476317F700AF
:10588000EFC07FF02165EF00905C0100FA40EA4232
:105890005A43CA433A442A459A450A46F656665739
:1058A000D6574658B658265E965E065FF64F366067
:1058B000A660166186617272E2725273C2733275AB
:1058C000A275127682767267E2675268C268326E9B
:1058D000A26E126F826F0D6173002030357106CF9A
:1058E00016CD1ACB1EC922C72AC52EC332C1B6DEB9
:1058F000BADCBEDAC2D8C6D6F2D4F6D2FAD0FECE20
:1059000082E686E48AE28EE012FE16FC1AFA1EF89F
:105910002AF62EF432F236F03AEE3EEC42EA46E84F
:1059200072E676E47AE27EE000118545B737014001
:10593000138507C0EF208052AA8791CBEF40500219
:105940008545B7370140138507C0EF202058010077
:10595000FA40EA425A43CA433A442A459A450A461B
:10596000F6566657D6574658B658265E965E065F78
:10597000F64F3660A660166186617272E2725273EB
:10598000C2733275A275127682767267E2675268C8
:10599000C268326EA26E126F826F0D61730020308A
:1059A000357106CF16CD1ACB1EC922C72AC52EC304
:1059B00032C1B6DEBADCBEDAC2D8C6D6F2D4F6D26E
:1059C000FAD0FECE82E686E48AE28EE012FE16FC73
:1059D0001AFA1EF82AF62EF432F236F03AEE3EECBF
:1059E00042EA46E872E676E47AE27EE00011854516
:1059F000B7170040138507C0EF204046AA8795C31C
:105A0000EF30B078EF30B07AEF40E066EF40400121
:105A1000EF30106C8545B7170040138507C0EF20A5
:105A2000E04A0100FA40EA425A43CA433A442A454E
:105A30009A450A46F6566657D6574658B658265ED1
:105A4000965E065FF64F3660A660166186617272DA
:105A5000E2725273C2733275A275127682767267E1
:105A6000E2675268C268326EA26E126F826F0D6179
:105A700073002030357106CF16CD1ACB1EC922C750
:105A80002AC52EC332C1B6DEBADCBEDAC2D8C6D64B
:105A9000F2D4F6D2FAD0FECE82E686E48AE28EE036
:105AA00012FE16FC1AFA1EF82AF62EF432F236F01E
:105AB0003AEE3EEC42EA46E872E676E47AE27EE0CE
:105AC0000011854537050040EF204039AA8791C76E
:105AD000854537050040EF20603F0100FA40EA426B
