:100000006F60307113000000130000001300000047
:100010001300000013000000130000001300000094
:100020001300000013000000130000001300000084
:08003000130000007300100032
:1000380000000000000000007E6D00008E6D0000D2
:1000480000000000586E00000000000000000000E2
:100058005A6E00005C6E0000000000000000000006
:100068005E6E000000000000606E000000000000EE
:10007800626E0000646E0000666E0000686E00002C
:100088006A6E00006C6E0000B86100006C620000CF
:1000980020630000D463000088640000786E0000CC
:1000A8007A6E00007C6E00007E6E0000806E00009C
:1000B800826E0000846E0000866E0000886E00006C
:1000C8008A6E00008C6E00008E6E00003C65000099
:1000D800926E000086670000966E0000986E000021
:1000E8004E680000C6A60000FCA60000A06E000036
:1000F800A26E0000A46E0000A66E0000A86E0000AC
:10010800AA6E0000C85A00008C5B0000505C00001A
:1001180054660000B46E0000B66E0000B86E0000B1
:10012800466B0000BC6E0000BE6E0000C06E000092
:10013800C26E0000C46E00000E690000C86E0000A8
:10014800145D0000D85D0000CE690000866A0000DA
:10015800D26E0000D46E0000D66E0000D86E00008B
:10016800DA6E0000DC6E0000DE6E0000E06E00005B
:10017800E26E0000E46E0000E66E0000B696000035
:10018800EA6E0000EC6E0000E86000009A5E000075
:100198005E5F000028600000F66E0000066C00003C
:1001A800FA6E0000FC6E0000FE6E0000C66C0000D7
:1001B800026F0000046F0000066F0000086F000067
:1001C8000A6F00000C6F00000E6F0000106F000037
:1001D8000000000000000000000000000000000017
:1001E8000000000000000000000000000000000007
:0801F8000000000000000000FF
:100200003D432A876373C3029377F700BDEFADE5E3
:10021000937606FF3D8ABA960CC34CC30CC74CC7F5
:100220004107E36BD7FE11E28280B306C3408A0622
:100230009702000096966780A6002307B700A306E2
:10024000B7002306B700A305B7002305B700A30432
:10025000B7002304B700A303B7002303B700A3022A
:10026000B7002302B700A301B7002301B700A30022
:10027000B7002300B700828093F5F50F93968500B1
:10028000D58D93960501D58D61B79396270097027A
:10029000000096968682E78086FA9680C1171D8FA9
:1002A0003E96E374C3F8A5B7011122CE00102326B1
:1002B000A4FE37F500E08328450037F500E093F809
:1002C000E8FF2322150183A8C1810965130505F400
:1002D00033D5A802AA8601470325C4FEAA87014890
:1002E00037F500E03303F702B308D8029A98338356
:1002F000F60233B6F6029A85B387C8003E860CC96B
:1003000050C9B7F700E09843B7F700E0136707015B
:1003100098C3B7F700E09843B7F700E013671702F8
:1003200098C30100B7F700E0DC4313F717008547D7
:10033000E31AF7FEB7F700E09843B7F700E0799BC0
:1003400098C30100724405618280011122CE001021
:100350002326A4FEAE87A305F4FE8347B4FE85CB17
:100360008327C4FEBD8B0547B317F700939607019B
:10037000C1828327C4FE13D75700B70700200A079E
:1003800093870704BA979C43368798CB3DA0832771
:10039000C4FEBD8B0547B317F70093960701C182D2
:1003A0008327C4FE13D75700B70700200A07938797
:1003B0000704BA979C433687D8CB01007244056185
:1003C0008280011122CE00102326A4FE8327C4FEC2
:1003D000958313F77700B70700200A079387070470
:1003E000BA979C439C470327C4FE7D8B8546339771
:1003F000E600F98FB337F00093F7F70F3E857244AC
:1004000005618280797122D60018232EA4FC8327EF
:10041000C4FD958393F7F70F9D8BA307F4FE832705
:10042000C4FD93F7F70FFD8B2307F4FE0347F4FE9B
:10043000B70700200A0793870704BA979C43D84759
:100440008347E4FE8546B397F600C207C1833E8624
:100450008346F4FEB70700208A0693870704B69701
:100460009C43318FD8C70100325445618280797135
:1004700006D622D40018232EA4FC232CB4FCB28769
:100480002328D4FCA30BF4FC232004FE232204FE27
:10049000232404FE8327C4FD958393F7F70F9D8BD8
:1004A000A307F4FE8327C4FD93F7F70FFD8B230703
:1004B000F4FE8347F4FE91E785451145EF70202453
:1004C00091A80347F4FE85476317F700854521454A
:1004D000EF70E02281A00347F4FE89476317F7001D
:1004E00085454145EF70A02135A00347F4FE8D47B7
:1004F0006318F700854513050002EF70402019A826
:100500000347F4FE91476317F70085451305000480
:10051000EF70E01E8347E4FE0547B317F700C207FC
:10052000C1832310F4FE032784FD85476317F70278
:10053000832704FDC207C183A183C207C18389E762
:100540008D472322F4FE11A8832704FDC207C1832F
:10055000A183C207C1832322F4FE832704FDC207BF
:10056000C18393F7F70F2324F4FE0347F4FEB70784
:1005700000200A0793870704BA979C43130704FED9
:10058000BA853E85EF60B028032784FD854763194F
:10059000F7020347F4FEB70700200A079387070412
:1005A000BA9794438347E4FE0547B317F700C207A1
:1005B000C183034774FD3A86BE853685EF60D04718
:1005C0000100B2502254456182801D7186CEA2CCBA
:1005D00080102326A4FA2324B4FA85450325C4FAFF
:1005E000EF109014AA873E871306D006C56793853F
:1005F000C7EF3A85EF30905A832784FAB337F0007B
:1006000093F7F70F3E871306F006C5679385C7EF8C
:100610003A85EF30B058832784FABD832315F4FE62
:100620008357A4FE85073E87832784FAB3D7E70262
:100630002314F4FE0325C4FAEF107015B7370140F8
:10064000938707C02326F4FE0327C4FAA54763EC6B
:10065000E7088327C4FA13972700C5679387874E57
:10066000BA979C438287B7370140938707C02326F8
:10067000F4FE95A8B70700402326F4FEADA0B70707
:100680000040938707402326F4FEB1A8B717004027
:10069000938707802326F4FEB9A0B71700409387FD
:1006A00007C02326F4FE81A0B71700402326F4FEDE
:1006B0001DA8B7170040938707402326F4FE25A006
:1006C000B7370140938707402326F4FE29A8B75780
:1006D0000140938707C02326F4FE31A0B75701409D
:1006E0002326F4FE0100232E04FC232004FE231203
:1006F00004FE835784FE2310F4FE8357A4FE231EBA
:10070000F4FC231104FE231F04FC230204FE9307C0
:10071000C4FDBE850325C4FEEF70602C05468545EB
:100720000325C4FEEF70305185450325C4FEEF80DC
:100730006030C56703AE47ED138747ED03234700DD
:10074000138747ED83288700138747ED0328C700E9
:10075000138747ED084B138747ED4C4B138747ED45
:10076000104F138747ED544F138747ED1853938766
:1007700047EDDC53232AC4FB232C64FA232E14FBFD
:10078000232004FD2322A4FC2324B4FC2326C4FC40
:100790002328D4FC232AE4FC232CF4FC8327C4FA6A
:1007A00093F7F70F8A07130704FFBA9783A747FC4D
:1007B0008D453E85EF5040278327C4FA8A071307EB
:1007C00004FFBA9783A747FC3E85EF50202285455A
:1007D0000325C4FEEF70B03A0100F640664425617F
:1007E0008280797106D622D40018232EA4FC232CF3
:1007F000B4FC032784FD896793871771B337F7002B
:1008000093F7F70F3E8713065003C567938547F7A5
:100810003A85EF30B038B7370140938707C02326B9
:10082000F4FE8327C4FDC183BD8B2547636EF706A5
:1008300013972700C56793870751BA979C43828710
:10084000B7370140938707C02326F4FEB1A8B70746
:1008500000402326F4FE89A8B7070040938707408D
:100860002326F4FE91A0B717004093870780232624
:10087000F4FE1DA8B7170040938707C02326F4FE97
:1008800025A0B7370140938707402326F4FE29A807
:10089000B7570140938707C02326F4FE31A0B7570E
:1008A00001402326F4FE01008327C4FE83D7C7023C
:1008B0002315F4FE0357A4FE832784FD3307F702B4
:1008C000896793870771B357F7022314F4FE8327D0
:1008D000C4FDA1838D8B81EB8327C4FE035784FE67
:1008E000239AE702A9A88327C4FDA18313F7370041
:1008F00085476319F7008327C4FE035784FE239CB2
:10090000E70235A88327C4FDA18313F73700894781
:100910006319F7008327C4FE035784FE239EE70272
:1009200039A88327C4FDA18313F737008D476318C7
:10093000F7008327C4FE035784FE2390E7040100D9
:10094000B250225445618280797122D60018232E3C
:10095000A4FC232CB4FC232AC4FC231504FE23147A
:1009600004FE03A7C181832784FDB357F702C18327
:100970002314F4FE03A7C181835784FE8507BE8636
:10098000832784FDB387F602B357F7022315F4FEDD
:10099000B7370140938707C02326F4FE8327C4FDA1
:1009A000C183BD8B2547636EF70613972700C56784
:1009B00093878753BA979C438287B73701409387C1
:1009C00007C02326F4FEB1A8B70700402326F4FE93
:1009D00089A8B7070040938707402326F4FE91A01B
:1009E000B7170040938707802326F4FE1DA8B7178A
:1009F0000040938707C02326F4FE25A0B7370140A7
:100A0000938707402326F4FE29A8B7570140938710
:100A100007C02326F4FE31A0B75701402326F4FE79
:100A200001008357A4FEFD17139707014183832715
:100A3000C4FE2396E7028327C4FE035784FE239453
:100A4000E7020357A4FE832744FD3307F7028967B3
:100A500093870771B357F7022313F4FE8327C4FD6E
:100A6000A1838D8B81EB8327C4FE035764FE239AF9
:100A7000E702A9A88327C4FDA18313F737008547A0
:100A80006319F7008327C4FE035764FE239CE70223
:100A900035A88327C4FDA18313F73700894763195D
:100AA000F7008327C4FE035764FE239EE70239A89C
:100AB0008327C4FDA18313F737008D476318F70020
:100AC0008327C4FE035764FE2390E70401003254D9
:100AD000456182805D7186C6A2C48008232EA4FA77
:100AE000232CB4FA232AC4FA8327C4FBC1838D457F
:100AF0003E85EF106043AA873E871306D00AC5677C
:100B0000938547F73A85EF307009032744FB8967DF
:100B100093871771B337F70093F7F70F3E871306E4
:100B2000F00AC567938547F73A85EF303007232EE3
:100B300004FC232004FE231204FE232604FC2328A5
:100B400004FC232A04FC232C04FC231504FE832725
:100B5000C4FBC183BD8B3E85EF1060438327C4FB7C
:100B600093F7F70F93068031014685453E850132A4
:100B700085450545EF60B038B7370140938707C01A
:100B80002326F4FE8327C4FBC183BD8B2547636EF8
:100B9000F70613972700C56793870756BA979C43B4
:100BA0008287B7370140938707C02326F4FEB1A898
:100BB000B70700402326F4FE89A8B70700409387B3
:100BC00007402326F4FE91A0B717004093870780C3
:100BD0002326F4FE1DA8B7170040938707C02326DD
:100BE000F4FE25A0B7370140938707402326F4FE83
:100BF00029A8B7570140938707C02326F4FE31A0E8
:100C0000B75701402326F4FE01008327C4FB13D706
:100C1000C7008D47631AF7008545B707160013858F
:100C2000070CEF60E06415AA8327C4FB13D7C70045
:100C3000C547631AF7008545B707180013850710E5
:100C4000EF60006319AA8327C4FB13D7C700C94705
:100C5000631AF7008545B707180013850720EF6072
:100C60002061E5A88327C4FB13D7C700CD47631ACB
:100C7000F7008545B707180013850730EF60405F20
:100C8000E9A88327C4FB13D7C70093072002631A80
:100C9000F7008545B7171A0013850780EF60405DA0
:100CA0006DA88327C4FB13D7C70093073002631ACC
:100CB000F7008545B7171A00138507C0EF60405B42
:100CC00069A88327C4FB13D7C700930710036317D2
:100CD000F70085450565EF60A05941A08327C4FB57
:100CE00013D7C70093071007631AF7008545B707A6
:100CF000008013854700EF60A05785A08327C4FBC1
:100D000013D7C70093073008631AF7008545B70764
:100D1000138013850701EF60A05581A08327C4FBD2
:100D200013D7C70093071009631AF7008545B70763
:100D3000158013850702EF60A05305A08327C4FB2D
:100D400013D7C700930730096319F7008545B70724
:100D5000158013850704EF60A05103A7C181832785
:100D600084FBB357F702C1832315F4FE03A7C181A7
:100D70008357A4FE8507BE86832784FBB387F602CC
:100D8000B357F7022314F4FE035784FE832744FB72
:100D90003307F702896793870771B357F702231365
:100DA000F4FE835784FEFD17C207C1832310F4FEAF
:100DB0008357A4FE231EF4FC231104FE231F04FC0E
:100DC000230204FE9307C4FDBE850325C4FEEF6025
:100DD0001041930700072316F4FC85472317F4FC02
:100DE000231804FC835764FE2319F4FC8947231A53
:100DF000F4FC8947231BF4FC231C04FC231D04FC86
:100E00008327C4FBA1838D8B9DE39307C4FCBE8520
:100E10000325C4FEEF609054A1450325C4FEEF7086
:100E2000007691450325C4FEEF70300A45A0832764
:100E3000C4FBA18313F7370085476315F7029307B7
:100E4000C4FCBE850325C4FEEF60106BA1450325DD
:100E5000C4FEEF708077930500400325C4FEEF7059
:100E6000900BADA08327C4FBA18313F737008947FC
:100E70006314F7029307C4FCBE850325C4FEEF701C
:100E8000C005A1450325C4FEEF70C0799145032537
:100E9000C4FEEF70B00D1DA88327C4FBA18313F718
:100EA00037008D476314F7029307C4FCBE85032502
:100EB000C4FEEF704020A1450325C4FEEF70407BC7
:100EC000930500400325C4FEEF70100F85450325F0
:100ED000C4FEEF70405085450325C4FEEF70204AE4
:100EE0000100B640264461618280797106D622D421
:100EF0000018232EA4FC8327C4FDB337F00093F71A
:100F0000F70F3E8713061004C5679385C7FE3A8521
:100F1000EF30C0488327C4FD9C43BD8B0547B31702
:100F2000F70093960701C1828327C4FD9C4313D722
:100F30005700B70700200A0793870704BA979C4316
:100F4000368798CB8327C4FDDC43BD8B0547B31799
:100F5000F70093960701C1828327C4FDDC4313D7B2
:100F60005700B70700200A0793870704BA979C43E6
:100F7000368798CB8327C4FDDC472326F4FE010087
:100F80008327C4FE1387F7FF2326E4FEF5FB8327A0
:100F9000C4FDDC43BD8B0547B317F70093960701EB
:100FA000C1828327C4FDDC4313D75700B707002055
:100FB0000A0793870704BA979C433687D8CB8327C1
:100FC000C4FDDC472324F4FE0100832784FE13873D
:100FD000F7FF2324E4FEF5FB8327C4FD9C43BD8B70
:100FE0000547B317F70093960701C1828327C4FD15
:100FF0009C4313D75700B70700200A0793870704BD
:10100000BA979C433687D8CB0100B2502254456131
:101010008280797106D622D40018232EA4FC83275F
:10102000C4FDB337F00093F7F70F3E871306400572
:10103000C5679385C7FE3A85EF3040368327C4FDE8
:10104000DC43BD8B0547B317F70093960701C182B8
:101050008327C4FDDC4313D75700B70700200A07D6
:1010600093870704BA979C433687D8CB8327C4FD60
:101070009C43BD8B0547B317F70093960701C182C8
:101080008327C4FD9C4313D75700B70700200A07E6
:1010900093870704BA979C433687D8CB8327C4FD30
:1010A000DC472326F4FE01008327C4FE1387F7FFE5
:1010B0002326E4FEF5FB8327C4FD9C43BD8B054737
:1010C000B317F70093960701C1828327C4FD9C43A1
:1010D00013D75700B70700200A0793870704BA976A
:1010E0009C43368798CB8327C4FDDC472324F4FE3A
:1010F0000100832784FE1387F7FF2324E4FEF5FB1A
:101100008327C4FDDC43BD8B0547B317F7009396D7
:101110000701C1828327C4FDDC4313D75700B707FB
:1011200000200A0793870704BA979C43368798CB19
:101130008327C4FDDC472322F4FE0100832744FEFD
:101140001387F7FF2322E4FEF5FB0100B25022547F
:1011500045618280797106D622D40018232EA4FC22
:10116000AE87A30DF4FC8327C4FDB337F00093F7DB
:10117000F70F3E8713069006C5679385C7FE3A852D
:10118000EF30C0218327C4FD9C43BD8B0547B317B7
:10119000F70093960701C1828327C4FD9C4313D7B0
:1011A0005700B70700200A0793870704BA979C43A4
:1011B0003687D8CB8347B4FD95CB8327C4FDDC436A
:1011C000BD8B0547B317F70093960701C1828327AC
:1011D000C4FDDC4313D75700B70700200A079387E5
:1011E0000704BA979C43368798CB0DA88327C4FD84
:1011F000DC43BD8B0547B317F70093960701C18207
:101200008327C4FDDC4313D75700B70700200A0724
:1012100093870704BA979C433687D8CB8327C4FDAE
:10122000DC472326F4FE01008327C4FE1387F7FF63
:101230002326E4FEF5FB8327C4FD9C43BD8B0547B5
:10124000B317F70093960701C1828327C4FD9C431F
:1012500013D75700B70700200A0793870704BA97E8
:101260009C43368798CB8327C4FDDC472324F4FEB8
:101270000100832784FE1387F7FF2324E4FEF5FB98
:101280008327C4FD9C43BD8B0547B317F700939696
:101290000701C1828327C4FD9C4313D75700B707BA
:1012A00000200A0793870704BA979C433687D8CB58
:1012B0008327C4FDDC43BD8B0547B317F700939626
:1012C0000701C1828327C4FDDC4313D75700B7074A
:1012D00000200A0793870704BA979C43368798CB68
:1012E0000100B250225445618280797106D622D421
:1012F0000018232EA4FC8327C4FDB337F00093F716
:10130000F70F3E8713065008C5679385C7FE3A85D9
:10131000EF30C008A30704FE8327C4FD9C43BD8BA8
:101320000547B317F70093960701C1828327C4FDD1
:101330009C4313D75700B70700200A079387070479
:10134000BA979C433687D8CB8327C4FDDC43BD8B3B
:101350000547B317F70093960701C1828327C4FDA1
:10136000DC4313D75700B70700200A079387070409
:10137000BA979C43368798CB8327C4FDDC47232448
:10138000F4FE0100832784FE1387F7FF2324E4FE85
:10139000F5FB8327C4FD9C43BD8B0547B317F700BE
:1013A00093960701C1828327C4FD9C4313D757003E
:1013B000B70700200A0793870704BA979C4336872C
:1013C00098CB8327C4FDDC472322F4FE010083274A
:1013D00044FE1387F7FF2322E4FEF5FB8327C4FDB9
:1013E000DC433E85EFE0FFFDAA8781C78547A30761
:1013F000F4FE8327C4FD9C43BD8B0547B317F7005C
:1014000093960701C1828327C4FD9C4313D75700DD
:10141000B70700200A0793870704BA979C433687CB
:10142000D8CB8327C4FDDC472320F4FE01008327AB
:1014300004FE1387F7FF2320E4FEF5FB8347F4FE49
:101440003E85B250225445618280797106D622D4FD
:101450000018232EA4FCAE87A30DF4FC8327C4FD43
:10146000B337F00093F7F70F3E871306700AC5678E
:101470009385C7FE3A85EF207072930700F8A307A3
:10148000F4FE09AA0347B4FD8347F4FEF98F93F7EE
:10149000F70F95CB8327C4FDDC43BD8B0547B317FE
:1014A000F70093960701C1828327C4FDDC4313D75D
:1014B0005700B70700200A0793870704BA979C4391
:1014C000368798CB0DA88327C4FDDC43BD8B054729
:1014D000B317F70093960701C1828327C4FDDC434D
:1014E00013D75700B70700200A0793870704BA9756
:1014F0009C433687D8CB8347F4FE8583A307F4FE4D
:101500008327C4FDDC472324F4FE0100832784FEE7
:101510001387F7FF2324E4FEF5FB8327C4FD9C43D8
:10152000BD8B0547B317F70093960701C182832748
:10153000C4FD9C4313D75700B70700200A079387C1
:101540000704BA979C43368798CB8327C4FDDC47B2
:101550002322F4FE0100832744FE1387F7FF232292
:10156000E4FEF5FB8327C4FD9C43BD8B0547B31701
:10157000F70093960701C1828327C4FD9C4313D7CC
:101580005700B70700200A0793870704BA979C43C0
:101590003687D8CB8347F4FEE39607EE0325C4FDD8
:1015A000A933AA87FD17B337F00093F7F70F3E85ED
:1015B000B250225445618280397106DE22DC26DA7F
:1015C00080002326A4FCAE87A305F4FC8327C4FC7B
:1015D000B337F00093F7F70F3E871306000CC5678B
:1015E0009385C7FE3A85EF20705BA30704FEA147F1
:1015F0002307F4FE8327C4FC9C43BD8B0547B31728
:10160000F70093960701C1828327C4FC9C4313D73C
:101610005700B70700200A0793870704BA979C432F
:101620003687D8CB8327C4FCDC472324F4FE010093
:10163000832784FE1387F7FF2324E4FEF5FB83272B
:10164000C4FCDC43BD8B0547B317F7009396070135
:10165000C1828327C4FCDC4313D75700B70700209F
:101660000A0793870704BA979C43368798CB7DA8CF
:101670008327C4FC9C43BD8B0547B317F7009396A3
:101680000701C1828327C4FC9C4313D75700B707C7
:1016900000200A0793870704BA979C433687D8CB64
:1016A0008327C4FCDC472322F4FE0100832744FE89
:1016B0001387F7FF2322E4FEF5FB8327C4FC9C433A
:1016C000BD8B0547B317F70093960701C1828327A7
:1016D000C4FC9C4313D75700B70700200A07938721
:1016E0000704BA979C43368798CB8327C4FCDC4712
:1016F0002320F4FE0100832704FE1387F7FF232035
:10170000E4FEF5FB8347F4FE860793948701E184AA
:101710008327C4FCDC433E85EFE0BFCAAA87E2070B
:10172000E187C58FE207E187A307F4FE8347E4FE64
:101730001387F7FF2307E4FE85FF8327C4FC9C4340
:10174000BD8B0547B317F70093960701C182832726
:10175000C4FC9C4313D75700B70700200A079387A0
:101760000704BA979C433687D8CB8327C4FCDC4751
:10177000232EF4FC01008327C4FD1387F7FF232EDB
:10178000E4FCF5FB8347B4FCBE850325C4FCD932D9
:101790008347F4FE3E85F2506254D2542161828028
:1017A000011106CE22CC00102326A4FEAE8732877C
:1017B000A305F4FEBA872305F4FE8327C4FEB337DE
:1017C000F00093F7F70F3E8713066013C567938504
:1017D000C7FE3A85EF20903C0325C4FEEFF0EFF002
:1017E0008327C4FE83C78700860793F7F70FBE855C
:1017F0000325C4FE99398347B4FEBE850325C4FE84
:10180000A9318347A4FEBE850325C4FE3D390325C7
:10181000C4FEEFF01F800100F24062440561828047
:10182000797106D622D40018232EA4FCAE87A30D0E
:10183000F4FC8327C4FDB337F00093F7F70F3E871E
:101840001306401EC5679385C7FE3A85EF20103505
:10185000A30704FE0325C4FDEFF02FE98327C4FD91
:1018600083C78700860793F7F70FBE850325C4FD5E
:10187000E93E8347B4FDBE850325C4FDF936032543
:10188000C4FDEFF08FE68327C4FD83C7870086077A
:10189000E207E18793E71700E207E18793F7F70F85
:1018A000BE850325C4FD553685450325C4FD293372
:1018B000AA87A307F4FE0325C4FDEFF08FF5834745
:1018C000F4FE3E85B250225445618280011106CE5D
:1018D00022CC26CA00102326A4FEAE872322C4FEF3
:1018E0002320D4FEA305F4FE8327C4FEB337F00003
:1018F00093F7F70F3E871306C01FC5679385C7FE92
:101900003A85EF20B029832744FEB337F00093F7E0
:10191000F70F3E871306D01FC5679385C7FE3A852C
:10192000EF20D0270325C4FEEFF02FDC8327C4FE71
:1019300083C78700860793F7F70FBE850325C4FE8C
:1019400029368347B4FEBE850325C4FEFD3C03252E
:10195000C4FEEFF08FD98327C4FE83C787008607B4
:10196000E207E18793E71700E207E18793F7F70FB4
:10197000BE850325C4FED13C2DA0832704FE93B76A
:10198000170093F7F70F3E87832444FE93871400D4
:101990002322F4FEBA850325C4FE3939AA872380A1
:1019A000F400832704FE1387F7FF2320E4FEF1F7FA
:1019B0000325C4FEEFF0EFE50100F2406244D2449B
:1019C00005618280797106D622D400182326A4FEF0
:1019D000AE872322C4FE2320D4FE232EE4FCA305DD
:1019E000F4FE8327C4FEB337F00093F7F70F3E876A
:1019F0001306F02BC5679385C7FE3A85EF20101AB2
:101A0000032704FE8327C4FDB307F740B337F00074
:101A100093F7F70F3E871306002CC5679385C7FE23
:101A20003A85EF20B0178327C4FE032704FE98C32E
:101A30008327C4FE0327C4FDD8C38327C4FE0347FE
:101A4000B4FE2384E7008327C4FE032744FED8C7DF
:101A5000C14605468545032504FEEFE05FA1D1465A
:101A6000054685450325C4FDEFE07FA00100B25087
:101A7000225445618280011122CE00102326A4FE4B
:101A8000AE87A305F4FEC5670327C4FE0A07938744
:101A90008758BA979C433E878347B4FEC207C183E9
:101AA0002316F7000100C5670327C4FE0A079387C2
:101AB0008758BA979C4383D78700C207C18393F79F
:101AC0000708F5F30100724405618280011122CEFE
:101AD00000102326A4FEAE872315F4FE8357A4FE30
:101AE000A183C207C18393F6F70FC5670327C4FE1E
:101AF0000A0793878758BA979C433E8793970601B6
:101B0000C1832316F7000100C5670327C4FE0A0737
:101B100093878758BA979C4383D78700C207C183AE
:101B2000898BFDD38357A4FE93F6F70FC567032770
:101B3000C4FE0A0793878758BA979C433E879397BA
:101B40000601C1832316F7000100C5670327C4FE01
:101B50000A0793878758BA979C4383D78700C207A1
:101B6000C18393F70708F5F3010072440561828091
:101B7000011122CE00102326A4FE2324B4FE23222A
:101B8000C4FE71A8832784FE83D70700A183C20700
:101B9000C18393F6F70FC5670327C4FE0A0793872F
:101BA0008758BA979C433E8793970601C1832316B3
:101BB000F7000100C5670327C4FE0A07938787580B
:101BC000BA979C4383D78700C207C183898BFDD313
:101BD000832784FE138727002324E4FE83D707008E
:101BE00093F6F70FC5670327C4FE0A079387875844
:101BF000BA979C433E8793970601C1832316F7004B
:101C00000100C5670327C4FE0A0793878758BA9760
:101C10009C4383D78700C207C183898BFDD3832769
:101C200044FE1387F7FF2322E4FEA9FF0100C567E6
:101C30000327C4FE0A0793878758BA979C4383D724
:101C40008700C207C18393F70708F5F301007244C8
:101C5000056182805D7186C6A2C480082326A4FC2B
:101C60002324B4FC2322C4FC2320D4FC232EE4FA36
:101C7000232CF4FA232A04FBC5670327C4FC0A07B4
:101C800093878758BA979C433E85EF50D038854557
:101C90000545EF50D026032704FC93073012631D3F
:101CA000F7000327C4FB930750126317F70085451D
:101CB0000545EF50E05B25A0032704FC8967938767
:101CC000A714631EF7000327C4FB89679387C71413
:101CD0006317F700854537152000EF5060598327BB
:101CE000C4FC91E785450565EF50702125A00327C9
:101CF000C4FC85476317F70085451165EF509024B4
:101D000011A80327C4FC89476316F70085452165A0
:101D1000EF505023832704FC93F7F70F930680318D
:101D2000054685453E85EFE08FF48327C4FB93F796
:101D3000F70F93068031054685453E85EFE02FF38A
:101D4000032784FBC167F917630DF700832784FB22
:101D500093F7F70F93068034054681453E85EFE003
:101D60000FF1032744FB9307F00F630DF700832760
:101D700044FB93F7F70F93060031014685453E85F6
:101D8000EFE0EFEE232E04FC232004FE232204FECA
:101D9000232404FE231604FE231E04FC9307401094
:101DA000231FF4FC231004FE032784FC85476305EE
:101DB000F702832784FC81CF032784FC89476303D0
:101DC000F702032784FC8D476304F7020DA8231153
:101DD00004FE231204FE25A0231104FE85472312CE
:101DE000F4FE31A889472311F4FE231204FE01A852
:101DF00089472311F4FE85472312F4FE01002317BF
:101E000004FE03A7C181832744FCB357F7022317BD
:101E1000F4FE03A7C181832744FCB377F70291E75F
:101E20008357E4FEFD172317F4FE0357E4FE9307E0
:101E3000F00763F7E700930780032317F4FE49A830
:101E40000357E4FE9307F00363F7E70093070003EB
:101E50002317F4FEB5A80357E4FEFD4763F7E70038
:101E6000930780022317F4FEA5A00357E4FEBD47A5
:101E700063F7E700930700022317F4FE91A80357C6
:101E8000E4FE9D4763F6E700E1472317F4FE89A0CF
:101E90000357E4FE8D4763F6E700C1472317F4FEBE
:101EA00005A80357E4FE854763F6E700A14723171B
:101EB000F4FE39A88357E4FE81C7231704FE09A85E
:101EC00013068022C567938587060145EF20004DE4
:101ED0008357E4FE2314F4FE930700202313F4FE3B
:101EE000231504FE231604FEC5670327C4FC0A0756
:101EF00093878758BA979C433E879307C4FDBE8556
:101F00003A85EF50B018C5670327C4FC0A079387CA
:101F10008758BA979C4385453E85EF50B02601000F
:101F2000B640264461618280797122D60018232E42
:101F3000A4FC232CB4FC8547A307F4FE0327C4FDAF
:101F40000A0793878190BA979C4399EB0327C4FDB6
:101F50000A0793878190BA97032784FD98C315A039
:101F60000327C4FD0A0793878190BA979C430327F0
:101F700084FD6316F7008547A307F4FE19A0A307A5
:101F800004FE8347F4FE3E85325445618280011190
:101F900006CE22CC00102326A4FE8327C4FE81EBAC
:101FA0008545856713850780EF5060756DA8032709
:101FB000C4FE85476317F70085450545EF508078D7
:101FC0005DA00327C4FE89476317F70085450945CF
:101FD000EF50407749A80327C4FE8D476317F700E9
:101FE00085451145EF500076BDA80327C4FE9147F3
:101FF0006317F70085452145EF50C074ADA0032756
:10200000C4FE95476317F70085454145EF5080733F
:1020100099A80327C4FE99476318F700854513055F
:102020000002EF50207281A00327C4FE9D47631772
:10203000F70085450965EF50806C35A00327C4FE85
:10204000A1476318F700854537050800EF50206B5E
:1020500019A80327C4FEA5476317F7008545370570
:102060001000EF50C0690100F240624405618280B7
:10207000797122D60018232EA4FCB737014093872C
:1020800007C02326F4FE231504FE0327C4FDA5473D
:1020900063ECE7088327C4FD13972700C567938780
:1020A0004759BA979C438287B7370140938707C047
:1020B0002326F4FE95A8B70700402326F4FEADA022
:1020C000B7070040938707402326F4FEB1A8B7174F
:1020D0000040938707802326F4FEB9A0B71700407D
:1020E000938707C02326F4FE81A0B717004023265C
:1020F000F4FE1DA8B7170040938707402326F4FE7F
:1021000025A0B7370140938707402326F4FE29A86E
:10211000B7570140938707C02326F4FE31A0B75775
:1021200001402326F4FE01000327C4FD0A0793871C
:102130000193BA9798438947631FF7008327C4FE2A
:1021400083D747021397070141838D47B357F7029F
:102150002315F4FE39A08327C4FE83D74702231535
:10216000F4FE8357A4FE3E85325445618280797126
:1021700022D60018232EA4FCB7370140938707C04E
:102180002326F4FE0327C4FDA54763ECE708832755
:10219000C4FD13972700C5679387C75BBA979C4315
:1021A0008287B7370140938707C02326F4FE95A89E
:1021B000B70700402326F4FEADA0B7070040938781
:1021C00007402326F4FEB1A8B71700409387078085
:1021D0002326F4FEB9A0B7170040938707C0232633
:1021E000F4FE81A0B71700402326F4FE1DA8B71700
:1021F0000040938707402326F4FE25A0B73701400F
:10220000938707402326F4FE29A8B75701409387F8
:1022100007C02326F4FE31A0B75701402326F4FE61
:1022200001008327C4FE2392070201003254456156
:102230008280011122CE00102326A4FEAE87A305C2
:10224000F4FE0100C5670327C4FE0A079387475EB3
:10225000BA979C4383D70700C207C18393F7070847
:10226000F5D3C5670327C4FE0A079387475EBA976D
:102270009C433E878347B4FEC207C1832312F70005
:102280000100724405618280011106CE22CC00104B
:102290002326A4FE2324B4FE2322C4FE832784FE27
:1022A000B337F00093F7F70F3E8713061004C567A6
:1022B0009385070E3A85EF20600E29A8832784FEB8
:1022C000138717002324E4FE83C70700BE85032578
:1022D000C4FE8537832744FE1387F7FF2322E4FEDD
:1022E000F1FF0100F240624405618280011106CED7
:1022F00022CC00102326A4FE2324B4FE832784FED0
:10230000B337F00093F7F70F3E8713060005C56754
:102310009385070E3A85EF20600839A8832784FE4D
:10232000138717002324E4FE8387070093F7F70F32
:10233000BE850325C4FEF53D832784FE8387070001
:10234000F1FF0100F240624405618280011106CE76
:1023500022CC00102326A4FEAE87A305F4FEC56799
:102360000327C4FE0A079387475EBA979C433E87BC
:102370008347B4FE3E86930550523A85EF60B076AF
:102380001387C1848327C4FEBA9783C7070081459A
:102390003E85EF3060698347B4FE81CF1387C184E7
:1023A0008327C4FEBA9783C707003E85EF300064D9
:1023B00019A81387C1848327C4FEBA9783C707006F
:1023C0003E85EF3080640100F24062440561828006
:1023D000011122CE00102326A4FE2324B4FEC567DB
:1023E0000327C4FE0A079387475EBA979C4383D7A7
:1023F0000700C207C18393F707028DC7C56703278C
:10240000C4FE0A079387475EBA979C4383D7470069
:10241000C207C18313F7F70F832784FE2380E700E9
:10242000854711A081473E8572440561828079719C
:1024300006D622D40018232EA4FC232CB4FC232A75
:10244000C4FC2328D4FC032744FD832704FD3D8FCF
:102450008327C4FDB207F98F93B7170093F7F70FDF
:102460003E871306A00AC5679385070E3A85EF10CD
:10247000F072832744FD13D78700832704FDA183CF
:10248000B307F74093B7170093F7F70F3E8713068C
:10249000B00AC5679385070E3A85EF103070832721
:1024A00044FD93F7F70FE146014685453E85EFD0A1
:1024B0001FFC832704FD93F7F70F93068004014662
:1024C00081453E85EFD0BFFA85450545EF50202375
:1024D000032744FDC167FD17F98F0D671307073800
:1024E0006387E7200D67130707386369F7040567FB
:1024F000130757166381E716056713075716636FAF
:10250000F7001307F022638AE70C1307603063813A
:10251000E710130760126388E70865A609671307C9
:102520008736638BE7160D67130707126387E71873
:1025300009671307A7146380E71461A615671307DB
:10254000A738638EE72615671307A7386362F7027B
:102550001167130787386380E72015671307871211
:102560006385E722116713074712638CE71A91AE60
:1025700019671307C7386388E72A19671307C7382D
:102580006368F7001967130767106384E72615AEC1
:102590001D671307E7106382E72C1D671307E738F1
:1025A0006387E72E39AEB7070140D44FB707014024
:1025B000370700FC7D17758FD8CFB7070140D84388
:1025C000B70701406D9BD8C3B7070140D843B70791
:1025D000014013674700D8C3EDA4B7070140D44FAB
:1025E000B7070140370700FC7D17758FD8CFB707B5
:1025F0000140D44FB707014037070004558FD8CFAB
:10260000B7070140D843B70701406D9BD8C355AC0D
:10261000B7070140D44FB7070140370700FC7D17CB
:10262000758FD8CFB7070140D44FB70701403707A0
:102630000004558FD8CFB7070140D843B7070140F2
:102640006D9BD8C3B7070140D843B7070140136754
:102650004700D8C3BDA4B7070140D843B70701401E
:102660005D9BD8C3B7070140D843B7070140136744
:102670008700D8C3B9A4B7070140D843B7070140C2
:102680001377F7FCD8C3B7070140D843B707014019
:1026900013670701D8C335A4B7070140D843B7076C
:1026A00001401377F7FCD8C3B7070140D843B707F9
:1026B000014013670703D8C329A4B7070140D44FCB
:1026C000B70701403707FDFF7D17758FD8CFB707D4
:1026D0000140D44F832744FDA18313970701B70717
:1026E00003007D8FB7070140558FD8CFD9AAB70710
:1026F0000140D44FB70701403707FDFF7D17758FA5
:10270000D8CFB7070140D44F832744FDA183139747
:102710000701B70703007D8FB7070140558FD8CF5A
:102720004DA2B7070140D44FB70701403707F4FF68
:102730007D17758FD8CFB7070140D44F832744FD4D
:10274000A18313972701B7070C007D8FB7070140BE
:10275000558FD8CFBDA2B7070140D44FB70701406E
:102760003707F4FF7D17758FD8CFB7070140D44FD7
:10277000832744FDA18313972701B7070C007D8FA2
:10278000B7070140558FD8CF2DAAB7070140D44FC6
:10279000B70701403707D0FF7D17758FD8CFB70730
:1027A0000140D44F832744FDA18313974701B70706
:1027B00030007D8FB7070140558FD8CF19A2B707DA
:1027C0000140D44FB70701403707D0FF7D17758F01
:1027D000D8CFB7070140D44F832744FDA183139777
:1027E0004701B70730007D8FB7070140558FD8CF1D
:1027F000C9A8B7070140D44FB7070140370740FFCA
:102800007D17758FD8CFB7070140D44F832744FD7C
:10281000A18313976701B707C0007D8FB7070140F9
:10282000558FD8CF79A8B7070140D44FB7070140DB
:10283000370740FF7D17758FD8CFB7070140D44FBA
:10284000832744FDA18313976701B707C0007D8FDD
:10285000B7070140558FD8CFADA0B7070140D44F7F
:10286000B7070140370700FD7D17758FD8CFB70731
:102870000140D44F832744FDA18313978701B707F5
:1028800000037D8FB7070140558FD8CF1DA8B7072C
:102890000140D44FB7070140370700FD7D17758F02
:1028A000D8CFB7070140D44F832744FDA1831397A6
:1028B0008701B70700037D8FB7070140558FD8CF39
:1028C00001008327C4FD91E785451165EF40306322
:1028D00069A80327C4FD85476318F70085453705B8
:1028E0000200EF40306651A00327C4FD89476318FA
:1028F000F700854537050400EF40D064BDA00327ED
:10290000C4FD8D476318F700854537050800EF4083
:102910007063A1A80327C4FD91476318F70085459C
:1029200037051000EF40106289A00327C4FD9547CA
:102930006318F700854513050004EF40B06035A02B
:102940000327C4FD99476318F70085451305000860
:10295000EF40505F19A80327C4FD9D476317F70098
:10296000854513050010EF40F05D232004FE23226F
:1029700004FE232404FE232604FE832784FD232053
:10298000F4FE231204FE231304FE231404FE231674
:1029900004FEB1472315F4FEC5670327C4FD0A07EB
:1029A0009387475EBA979C433E87930704FEBE8594
:1029B0003A85EF60006AC5670327C4FD0A0793875D
:1029C000475EBA979C4385453E85EF60D00B01007A
:1029D000B250225445618280411106C622C40008CB
:1029E00083A741860547638BE7006388070C094787
:1029F000638DE7000D47638FE702E9A083A7018697
:102A00001387170023A0E18675A883A70186138783
:102A1000170023A0E18603A70186A54763F1E70A13
:102A2000B7070020938707049C4B1167D8CB23A0DE
:102A3000018671A003A7818685476314F7081305F3
:102A4000F008EFD01F98AA87ADC31945EFF04FE209
:102A5000AA873E8783A701861D8F9307600963F2CB
:102A6000E7061945EFF0AFF083A70186D3F717D03B
:102A70005385F720EFA01023C56703A6871583A60B
:102A8000C715EF908067AA872E883E85C285EFA084
:102A9000300AAA87139707014183B7070020239CB8
:102AA000E726094723A4E18629A81945EFF04FDC62
:102AB000AA873E8723A0E18629A0010021A001006A
:102AC00011A001000100B240224441018280411165
:102AD00006C622C4000883A741860947637CF70025
:102AE0000D47639AE7001945EFF06FE8054723A407
:102AF000E18611A001000100B24022444101828020
:102B0000011106CE22CC0010232204FE83C7D186F9
:102B10006381071409A8930734FE0546BE85138513
:102B20008195EF20A003930734FEBE851D45EFF08D
:102B30003F8AAA87EDF3034734FEA947631BF710CA
:102B400099472322F4FE130744FE930784FE85462B
:102B50003A86BE8513858195EF20E05E930784FE5B
:102B6000138737000D46C567938507163A85EFB082
:102B7000F02AAA879DEB03A7418789476304F70CD6
:102B8000054723AAE18613858195EF109075AA87E2
:102B90002322F4FE930744FE81463E869385419F9F
:102BA00013858195EF20205A71A8930784FE13871F
:102BB00037000D46C567938547163A85EFB0102656
:102BC000AA879DEB03A701878947630DF706054791
:102BD00023A8E18613858195EF10B070AA87232280
:102BE000F4FE930744FE81463E8693854197138504
:102BF0008195EF204055B9A0930784FE13873700D5
:102C00000D46C567938587163A85EFB03021AA87B0
:102C100095EB03A7818789476306F702054723AC35
:102C2000E18613858195EF10D06BAA872322F4FEED
:102C3000930744FE81463E86938541A7138581957F
:102C4000EF20605013858195EF10104505472386CE
:102C5000E1860100F240624405618280011106CEE6
:102C600022CC0010AA87A307F4FEB70700209387A1
:102C700007049C4B0947D8CB8347F4FEBE85094522
:102C8000EFE07FDFB7070020938707049C4B0947DD
:102C900098CB0100F240624405618280011106CEAA
:102CA00022CC0010AA8736872317F4FEAE8723169E
:102CB000F4FEB2872315F4FEBA872314F4FE83C70B
:102CC0008180C207C1830357E4FEB337F70093F74F
:102CD000F70F3E871306200BC567938507253A85B6
:102CE000EF10C06B83C79180C207C1830357C4FE36
:102CF000B337F70093F7F70F3E871306300BC5671E
:102D0000938507253A85EF10606983C78180C207E4
:102D1000C1830357A4FEB337F70093F7F70F3E873D
:102D20001306400BC567938507253A85EF100067AA
:102D300083C79180C207C183035784FEB337F7006E
:102D400093F7F70F3E871306500BC567938507254A
:102D50003A85EF10A06483A701880547638CE706D6
:102D600081CB0947638AE70C0D476389E71249AABB
:102D70001305A002E5358357E4FE93878702C20757
:102D8000C183BE850945EFE07FD48357A4FE9387B6
:102D90008702C207C183BE850945EFE03FD3130513
:102DA000B0026D3D8357C4FE93874703C207C183BA
:102DB000BE850945EFE09FD1835784FE9387470383
:102DC000C207C183BE850945EFE05FD01305C0028D
:102DD00071353DA21305A00251358357E4FE938758
:102DE0008702C207C183BE850945EFE03FCE835706
:102DF000A4FE93878702C207C183BE850945EFE021
:102E0000FFCC1305B002993D8357C4FE9387570347
:102E1000C207C183BE850945EFE05FCB835784FEBF
:102E200093875703C207C183BE850945EFE01FCAD8
:102E30001305C0022535E9A01305A0020535835707
:102E4000E4FE93874703C207C183BE850945EFE0CF
:102E5000FFC78357A4FE93874703C207C183BE857C
:102E60000945EFE0BFC61305B002CD3B8357C4FE52
:102E700093878702C207C183BE850945EFE01FC55E
:102E8000835784FE93878702C207C183BE850945A5
:102E9000EFE0DFC31305C002D1339DA01305A002EC
:102EA000753B8357E4FE93875703C207C183BE85F2
:102EB0000945EFE0BFC18357A4FE93875703C207BC
:102EC000C183BE850945EFE07FC01305B0027933A9
:102ED0008357C4FE93878702C207C183BE85094515
:102EE000EFE0DFBE835784FE93878702C207C1836A
:102EF000BE850945EFE09FBD1305C0028533010083
:102F00000100F240624405618280797106D622D4C4
:102F100000189307C4FD3E85EF10A0538547231E7C
:102F2000F4FC83C78180C207C183231FF4FC83C7DD
:102F30009180C207C1832310F4FEB707002083A746
:102F4000C7270547638AE70099EF99472301F4FEF5
:102F5000A147A301F4FE09A8A1472301F4FEC1473C
:102F6000A301F4FE11A00100B73700009387C74406
:102F70002324F4FEB7370000938747F92326F4FE95
:102F80009307C4FD3E85EF1060520100B2502254F9
:102F900045618280011106CE22CC26CA00100A8526
:102FA000AA8403C58180AA88FD18232214FF2A83DE
:102FB00081439358C3011397430033E7E800931606
:102FC0004300AA85014613D7C5011318460033688C
:102FD000070193974500AA878607BD07918392074B
:102FE0003301F1408A878507858386072320F4FE15
:102FF000232404FE232604FEB7070020938707043A
:10300000DC4313070010D8CB83C78180C207C1837C
:10301000FD1713970701418383C79180C207C183BE
:10302000FD17C207C183BE863A8681450145EFF090
:10303000FFC6232404FE05A003D7C187832604FE10
:10304000832784FE8607B6972390E700832784FEB4
:1030500085072324F4FE83C781803E87832784FE6F
:10306000E3ECE7FC232604FE39A8032704FE83C70C
:1030700081803E86BA850945EFE09FAF8327C4FE75
:1030800085072326F4FE83C791803E878327C4FEED
:10309000E3EDE7FCB707002093870704DC43130741
:1030A000001098CB26810100130104FEF240624417
:1030B000D24405618280011122CE00102326A4FE95
:1030C0000327C4FE23A0E18883A701880547637610
:1030D000F7000D476363F70209A841572384E18095
:1030E000130770F8A384E18009A8130770F82384FC
:1030F000E1804157A384E180010001007244056131
:103100008280011122CE0010AA872E872317F4FE99
:10311000BA872316F4FEB70700200357E4FE239D69
:10312000E7260357C4FE239EE18601007244056131
:10313000828069712326111223248112001AAA8722
:10314000AE863287231FF4ECB687231EF4ECBA87D1
:10315000A30DF4EC83C78180C207C1830357E4ED5C
:10316000B337F70093F7F70F3E871306601DC56767
:10317000938507253A85EF10602283C79180C207A7
:10318000C1830357C4EDB337F70093F7F70F3E87BA
:103190001306701DC567938507253A85EF1000203B
:1031A000A30704FE230704FEB70700209387070444
:1031B000DC4313070010D8CBB707002083A7C7272D
:1031C0000547638CE70E639307268357E4ED950765
:1031D0001396070141828357C4ED9D07939607011B
:1031E000C1820357C4ED8357E4EDBA853E85EFF005
:1031F000FFAAA30704FE65A08307B4ED138707FEAB
:103200008346F4FE4966BA878607BA97860713078E
:1032100046BFBA97B69783C70700A306F4FE2307F5
:1032200004FEA5A08347D4FE858B8DC78346F4FE9C
:103230000347E4FEBA878607BA978607B69737072B
:1032400000200357A7278607930604FFB697239C01
:10325000E7EE15A08346F4FE0347E4FEBA8786072F
:10326000BA978607B69703D7C1878607930604FFE8
:10327000B697239CE7EE8347D4FE8583A306F4FE2E
:103280008347E4FE85072307F4FE0347E4FE9D47DA
:10329000E3FAE7F88347F4FE8507A307F4FE034744
:1032A000F4FE9547E3FAE7F4930784EE1306000370
:1032B000BE850945EFE0DF8B9DAA8357E4ED9D07AE
:1032C0001396070141828357C4EDBD07939607010A
:1032D000C1820357C4ED8357E4EDBA853E85EFF014
:1032E000FF9BA30704FE2DA28307B4ED938607FE80
:1032F0008347F4FE45679206130747603697BA97EF
:1033000083C707002306F4FE8307B4ED938607FE08
:103310008347F4FEA1074567920613074760369777
:10332000BA9783C70700A305F4FE230704FEB1A8DC
:103330008347C4FE858B95C30347F4FE8347E4FEB1
:103340008E07BA97370700200357A72786079306EB
:1033500004FFB697239CE7EE39A80347F4FE8347A2
:10336000E4FE8E07BA9703D7C1878607930604FF4A
:10337000B697239CE7EE8347C4FE85832306F4FEBD
:103380008347E4FE85072307F4FE0347E4FE9D47D9
:10339000E3F0E7FA230704FE95A08347B4FE858B8C
:1033A00085C70347F4FE8347E4FE8E07BA979387E9
:1033B0000704370700200357A7278607930604FF53
:1033C000B697239CE7EE0DA00347F4FE8347E4FE87
:1033D0008E07BA979387070403D7C187860793069A
:1033E00004FFB697239CE7EE8347B4FE8583A305CD
:1033F000F4FE8347E4FE85072307F4FE0347E4FE5B
:103400009D47E3FCE7F88347F4FE8507A307F4FE36
:103410000347F4FE9D47E3F9E7EC930784EE1306B8
:103420000008BE850945EFE0AFF411A00100B70721
:10343000002093870704DC431307001098CB01009A
:103440008320C1120324811255618280797106D6CE
:1034500022D40018AA872E87232CC4FC231FF4FC37
:10346000BA87231EF4FC83C78180C207C183035738
:10347000E4FDB337F70093F7F70F3E871306D0222A
:10348000C567938507253A85EF00507183C7918002
:10349000C207C1830357C4FDB337F70093F7F70F93
:1034A0003E871306E022C567938507253A85EF001E
:1034B000F06E231704FE41A8B707002083A7C72793
:1034C00005476381E704B5EB0357E4FEBA87860737
:1034D000BA9786071397070141838357E4FDBA978C
:1034E00093960701C1828357E4FE032784FDBA97B0
:1034F000038707008357C4FD3A86BE853685EFF003
:103500005FC32DA88357E4FE8E07139707014183FD
:103510008357E4FDBA9793960701C1828357E4FE6F
:10352000032784FDBA97038707008357C4FD3A86B3
:10353000BE853685EFF0FFBF11A001008357E4FE82
:1035400085072317F4FE8357E4FE032784FDBA970B
:1035500083870700B5F30100B25022544561828091
:10356000411106C622C400081308F00FC167F917FD
:1035700009671307C71489669386A61437B6120124
:103580001306068881450945EFE0CFECC1460146A8
:10359000854513051008EFC09FEDC14601468545DE
:1035A00013050008EFC0BFECC1460546854513056D
:1035B0008002EFC0DFEBC1460546854513050006D6
:1035C000EFC0FFEA83A701883E85EFF0DFAEB707C3
:1035D000002003D7A72783D7C187BE853A85EFF0A0
:1035E0005FB2B7070020938707049C4B0547D8CBF1
:1035F0001305800CEFC05FCBB7070020938707044B
:103600009C4B054798CB13054006EFC0FFC9B70791
:10361000002093870704DC4313070010D8CB130561
:103620006003EFF0AFE313054006EFC0FFC783A7C9
:10363000018805476380E70281CB09476382E7027F
:103640000D476384E70205A89305000A0945EFE0EA
:103650008FC215A0930500070945EFE0CFC121A84F
:1036600081450945EFE02FC139A09305000C0945BC
:10367000EFE06FC001001305A003EFF02FDE9545CA
:103680000945EFE04FBF1305200BEFF02FDDB145EB
:103690000945EFE04FBEB1450945EFE0CFBD81459B
:1036A0000945EFE04FBD930530030945EFE0AFBC9E
:1036B000930530030945EFE00FBC1305700BEFF0E5
:1036C000EFD9930550030945EFE0EFBA1305B00BAE
:1036D000EFF0CFD8930570030945EFE0CFB913059C
:1036E000000CEFF0AFD79305C0020945EFE0AFB88B
:1036F0001305200CEFF08FD685450945EFE0AFB7F5
:103700001305300CEFF08FD5C9450945EFE0AFB692
:103710001305400CEFF08FD4930500020945EFE04C
:103720008FB51305600CEFF06FD3BD450945EFE091
:103730008FB41305000DEFF06FD29305400A0945D1
:10374000EFE06FB39305100A0945EFE0CFB2130520
:10375000000EEFF0AFD09305000D0945EFE0AFB1DB
:1037600091450945EFE02FB1B5450945EFE0AFB010
:10377000C5450945EFE02FB0CD450945EFE0AFAFB6
:103780009305B0020945EFE00FAF9305F00309453B
:10379000EFE06FAE930540050945EFE0CFAD93052F
:1037A000C0040945EFE02FADE1450945EFE0AFACBE
:1037B000B5450945EFE02FACAD450945EFE0AFABAE
:1037C000FD450945EFE02FAB930530020945EFE0D9
:1037D0008FAA1305100EEFF06FC89305000D094571
:1037E000EFE06FA991450945EFE0EFA8B145094524
:1037F000EFE06FA8C5450945EFE0EFA7CD450945C6
:10380000EFE06FA79305C0020945EFE0CFA693054F
:10381000F0030945EFE02FA6930540040945EFE0CA
:103820008FA5930510050945EFE0EFA49305F0027D
:103830000945EFE04FA4FD450945EFE0CFA3FD4565
:103840000945EFE04FA3930500020945EFE0AFA261
:10385000930530020945EFE00FA213051002EFF0C7
:10386000EFBF4545EFF08FBF13058007EFC0DFA323
:1038700013059002EFF08FBEB7070020938707046F
:10388000DC431307001098CBEFF0CFF0EFF0EFE739
:103890000100B240224441018280011106CE22CCB7
:1038A0000010A30704FE230704FE231604FE0146AE
:1038B0009305B006138541AFEFD09FEE1D46E54559
:1038C000138541AFEFD0DFED15A88357C4FE1387F2
:1038D00017002316E4FE1307F00F6376F700854701
:1038E0002307F4FE0DA0E545138541AFEFD05FF34C
:1038F000AA87A307F4FE2945EFC01F9B0347F4FEE8
:103900009D47E314F7FC8347E4FE3E85F2406244A2
:1039100005618280011106CE22CC0010930784FE3F
:1039200099463E869305B003138541AFEFD01FFA49
:10393000834784FEA207139707014187834794FEBC
:10394000C207C187D98F1397070141872395E18863
:103950008347A4FEA2071397070141878347B4FE5C
:10396000C207C187D98F1397070141872396E18842
:103970008347C4FEA2071397070141878347D4FEFC
:10398000C207C187D98F1397070141872397E18821
:103990000100F240624405618280011106CE22CC12
:1039A0000010930784FE99463E86930530041385E4
:1039B00041AFEFD0BFF1834784FEA2071397070101
:1039C0004187834794FEC207C187D98F13970701A8
:1039D00041872392E1888347A4FEA207139707013A
:1039E00041878347B4FEC207C187D98F1397070168
:1039F00041872393E1888347C4FEA20713970701F9
:103A000041878347D4FEC207C187D98F1397070127
:103A100041872394E1880100F2406244056182807D
:103A2000011106CE22CC0010A30704FE130750029A
:103A300093063002154693058006138541AFEFD0FB
:103A40007FF813054006EFC03F86EFF01FE5AA8719
:103A500085C39306100CC5671386072EC56793852B
:103A6000C7350145EF00101A8547A307F4FEB1A83A
:103A700001469305B006138541AFEFD07FD21D46B6
:103A8000E545138541AFEFD0BFD11146E945138518
:103A900041AFEFD0FFD06146ED45138541AFEFD088
:103AA0003FD04146F145138541AFEFD07FCF01466E
:103AB0009305A006138541AFEFD09FCE094693052D
:103AC0007003138541AFEFD0BFCD8347F4FE3E8531
:103AD000F240624405618280411122C60008010063
:103AE000324441018280411122C60008B7170240CA
:103AF0009843B71702401367170098C3B7170240DF
:103B0000D443B71702403707FFF8758FD8C3B717EC
:103B100002409443B71702403707F7FE7D17758FB1
:103B200098C3B71702409443B71702403707FCFF0A
:103B30007D17758F98C3B7170240D443B71702405B
:103B4000370781FF7D17758FD8C3B7170240370736
:103B50009F0098C70100324441018280797106D6E6
:103B600022D40018232EA4FCBD3F232604FE2324C8
:103B700004FEB71702409443B71702404167558FC0
:103B800098C3B71702409843B7070200F98F232460
:103B9000F4FE8327C4FE85072326F4FE832784FED4
:103BA00091E70327C4FE8567E31DF7FCB7170240C2
:103BB0009843B7070200F98F89C785472324F4FE8D
:103BC00019A0232404FE032784FE85476312F716F9
:103BD00037170240B71702405843D8C3371702407F
:103BE000B71702405843D8C337170240B7170240EF
:103BF0005843D8C3B7170240D443B717024037071A
:103C0000C1FF7D17758FD8C30327C4FDB74795083B
:103C100093870740631BF700B7170240D443B717D9
:103C200002404167558FD8C355A80327C4FDB71775
:103C30002707938707E0631CF700B7170240D443B8
:103C4000B717024037073900558FD8C341A803275B
:103C5000C4FDB7E7B80593870780631CF700B71763
:103C60000240D443B717024037072900558FD8C305
:103C7000B5A00327C4FDB7A74A0493870720631C98
:103C8000F700B7170240D443B717024037071D00AB
:103C9000558FD8C3A1A00327C4FDB777DC02938753
:103CA00007C0631CF700B7170240D443B7170240A0
:103CB00037071100558FD8C315A00327C4FDB737A8
:103CC0006E0193870760631BF700B7170240D44368
:103CD000B717024037070500558FD8C3B717024002
:103CE0009443B717024037070001558F98C301006E
:103CF000B71702409843B7070002F98FF5DBB717F3
:103D00000240D843B7170240719BD8C3B71702408F
:103D1000D843B717024013672700D8C30100B7176D
:103D20000240DC4313F7C700A147E31AF7FE11A0D6
:103D300001A0B250225445618280011106CE22CCEE
:103D400000102326A4FE0327C4FE23AEE180EFF07B
:103D50009FD90325C4FEEFF07FE0EF1070550100FE
:103D6000F240624405618280411122C600080100D0
:103D70000100324441018280011106CE22CC0010A4
:103D8000232604FE232404FE232604FE25A0232448
:103D900004FE39A0D13F832784FE85072324F4FE47
:103DA000032784FEC167E367F7FE8327C4FE850708
:103DB0002326F4FE0327C4FE9307F00FE3F9E7FC84
:103DC0000100F240624405618280411122C6000870
:103DD0000100324441018280011106CE22CC001044
:103DE0002326A4FE8325C4FE0145EFE02FD0010069
:103DF000F240624405618280130101D92326112615
:103E00002324812623229126801C232EA4D8232C10
:103E1000B4D8232AC4D82328D4D8231504FE2314C5
:103E200004FE231304FE231204FE231104FE0325C3
:103E300084D9EFA0807DAA87C207C1872313F4FE2F
:103E400083D701B689C7938701B69C4B829783C7F6
:103E5000018993F7F70F638D074A83D701B663870C
:103E60000744938701B6D447835724FE139707016D
:103E7000418793170701C1838507C207C183C20722
:103E8000C1872311F4FE93170701C1830326C4D908
:103E9000BE8501458296832784D92326F4FE032517
:103EA00084D9EFA08076AA87C207C1872313F4FEC6
:103EB000938701B683D727003E87938701B683C7D0
:103EC0006700B347F702C207C1872312F4FE01005F
:103ED0008327C4FE138717002326E4FE8387070089
:103EE000E5FB231404FEA1A88327C4FEFD172326A7
:103EF000F4FE8327C4FE038707009307F002630ADA
:103F0000F7008327C4FE038707009307C005631BE0
:103F1000F700835784FEC207C1838507C207C183A8
:103F20002314F4FE835764FEC207C187C207C1830E
:103F3000FD17C207C183C207C1872313F4FE83574D
:103F400084FE139707014183854763E8E7008357A1
:103F500064FEC207C187E3D907F8835764FEC2072E
:103F6000C18763C207028327C4FE85072326F4FEA8
:103F7000130704EE0326C4FEC567938507383A8508
:103F8000EFA040641DA8835784FEC207C18381EF60
:103F9000130704EE0326C4FEC5679385C7383A8528
:103FA000EFA0406219A8130704EE0326C4FEC567FC
:103FB000938507383A85EFA0E060231504FE21AA17
:103FC000231404FE59A0930704EE3E85EFA0E0639E
:103FD0002A87835784FEC207C183BE868357A4FE07
:103FE000C207C1833E86835744FEC207C187B30719
:103FF000F602B6976367F706835784FEC207C1834C
:104000003E878357A4FEC207C183BE86835744FE02
:10401000C207C187B387F602BA97035784FE4207E7
:104020004183BA86130704FFBA97038707EF930704
:1040300004FFB6972388E7EA835784FEC207C1834B
:104040008507C207C1832314F4FE835784FEC20789
:10405000C1833E87835744FEC207C187E345F7F615
:1040600011A00100835784FEC207C183130704FF18
:10407000BA97238807EA938701B603A8C7009387F6
:1040800001B683C77700139707014183835724FE46
:1040900093960701C18693970601C1838507C207DE
:1040A000C183C207C1872311F4FE93970601C18320
:1040B000B307F702C207C183130704EA3A86BE8535
:1040C000014502988357A4FEC207C1838507C20732
:1040D000C1832315F4FE8357A4FEC207C183BE84A7
:1040E000930704EE3E85EFA040522A87835744FE93
:1040F000C207C187B357F7028507E3E3F4EC130760
:1041000004EE032644D9C5679385C7393A85EFA0E5
:10411000604B938701B603A8C700938701B683C796
:104120007700139707014183835724FE9396070175
:10413000C18693970601C1838507C207C183C20761
:10414000C1872311F4FE93970601C183B307F702D9
:10415000C207C183130704EE3A86BE850145029863
:10416000832704D96386071A231504FE21AA231482
:1041700004FE59A0032504D9EFA020492A878357BC
:1041800084FEC207C183BE868357A4FEC207C183D3
:104190003E86835744FEC207C187B307F602B6972F
:1041A0006368F706835784FEC207C1833E8783573F
:1041B000A4FEC207C183BE86835744FEC207C187DF
:1041C000B387F602BA973E87832704D9BA97035775
:1041D00084FE42074183BA8603870700930704FFE2
:1041E000B6972388E7EA835784FEC207C183850711
:1041F000C207C1832314F4FE835784FEC207C18320
:104200003E87835744FEC207C187E345F7F611A0F6
:104210000100835784FEC207C183130704FFBA97C6
:10422000238807EA938701B603A8C700938701B6DE
:1042300083C77700139707014183835724FE939622
:104240000701C18693970601C1838507C207C18311
:10425000C207C1872311F4FE93970601C183B307F8
:10426000F702C207C183130704EA3A86BE850145F7
:1042700002988357A4FEC207C1838507C207C18382
:104280002315F4FE8357A4FEC207C183BE84032511
:1042900004D9EFA080372A87835744FEC207C1871D
:1042A000B357F7028507E3E4F4EC9DA0930704DA23
:1042B0001306001081453E85EFB09FF4938701B649
:1042C0009C470325C4D98297832704D999CF130526
:1042D00004DA032704D9832644D9032684D9C56781
:1042E0009385873AEFA0002E29A8130704DA8326C6
:1042F00044D9032684D9C5679385473C3A85EFA006
:10430000602C938701B69847930704DA3E8502979D
:1043100001008320C1260324812683244126130122
:1043200001278280797106D622D40018232EA4FC9E
:10433000232CB4FC232AC4FC232604FE99A00100EC
:10434000C56783A7475E930500043E85EF50C0080C
:10435000AA87FDD7C56783A7475EBE86832784FDEE
:1043600013871700232CE4FC83870700C207C1834F
:10437000BE853685EF5060038327C4FE850723265C
:10438000F4FE0327C4FE832744FDE34AF7FA83279C
:1043900044FD3E85B250225445618280011106CE13
:1043A00022CC0010AA872324B4FE2322C4FEA30734
:1043B000F4FE8347F4FEB1E383C7018293F7F70F5E
:1043C0008DCF83C7118991C301A083C71189850748
:1043D00013F7F70FA388E188EF10C06AEFF0FF9E94
:1043E0008146032644FE832584FEC5671385C73DA9
:1043F000EFF09FA0EFF05F98E5B70100F240624454
:1044000005618280011106CE22CC0010AA872324E8
:10441000B4FE2322C4FE2320D4FEA307F4FE834768
:10442000F4FE95E383C7018993F7F70F91CF8326B5
:1044300084FE032604FE832544FEC5671385C73E1C
:10444000EFF09F9B11A001000100F2406244056162
:104450008280011122CE00102326A4FE8327C4FEF1
:10446000239007008327C4FE7D572391E70083270D
:10447000C4FE7D572392E7008327C4FE7D57238324
:10448000E7008327C4FE7D57A383E7008327C4FE8C
:1044900023A407008327C4FE23A607008327C4FEA6
:1044A00023A807000100724405618280011122CE19
:1044B00000102326A4FE8327C4FE03D70700239001
:1044C000E1B68327C4FE03D72700938701B6239163
:1044D000E7008327C4FE03D74700938701B62392E2
:1044E000E7008327C4FE03C76700938701B62383D1
:1044F000E7008327C4FE03C77700938701B6A38331
:10450000E7008327C4FE9847938701B698C783279F
:10451000C4FED847938701B6D8C78327C4FE984BFB
:10452000938701B698CB05472388E1880100724440
:1045300005618280797106D622D400189307C4FDE4
:104540003E85EFF01FF1B7470000938787DD2322F8
:10455000F4FE9307C4FD3E85EFF05FF5A9462546BE
:10456000F167938507200145EFD07FEC93060004A7
:10457000138641B08145138541B4EF10001785457E
:104580000145EFD0BFDC0100B2502254456182806A
:10459000011122CE00102326A4FE2324B4FE83277B
:1045A000C4FE03C7970083C6A700A206558F83C623
:1045B000B700C206558F83C7C700E207D98F3E8771
:1045C000832784FE3E978327C4FE9375F70F83C627
:1045D0009700818A3686AE86D18EA384D700935603
:1045E000870093F5F60F83C6A700818A3686AE86CC
:1045F000D18E2385D7009356070193F5F60F83C616
:10460000B700818A3686AE86D18EA385D700135631
:10461000870103C7C700018BBA863287558F23866F
:10462000E70055A08327C4FE03C7970083C6A700F1
:10463000A206558F83C6B700C206558F83C7C70031
:10464000E207D98F3E868327C4FE03C7570183C67E
:104650006701A206558F83C67701C206558F83C7AF
:104660008701E207D98F3307F6408327C4FE93758D
:10467000F70F83C69700818A3686AE86D18EA384D3
:10468000D7009356870093F5F60F83C6A700818A5B
:104690003686AE86D18E2385D7009356070193F5D3
:1046A000F60F83C6B700818A3686AE86D18EA38583
:1046B000D7001356870103C7C700018BBA8632871C
:1046C000558F2386E7008327C4FE03C7570183C69F
:1046D0006701A206558F83C67701C206558F83C72F
:1046E0008701E207D98F3E868327C4FE03C7970060
:1046F00083C6A700A206558F83C6B700C206558F92
:1047000083C7C700E207D98FE3FEC7F001007244F8
:1047100005618280011122CE00102326A4FE2324ED
:10472000B4FE8327C4FE03C7D70083C6E700A206F2
:10473000558F83C6F700C206558F83C70701E2076E
:10474000D98F3E87832784FE3E978327C4FE9375C7
:10475000F70F83C6D700818A3686AE86D18EA386B0
:10476000D7009356870093F5F60F83C6E700818A3A
:104770003686AE86D18E2387D7009356070193F5F0
:10478000F60F83C6F700818A3686AE86D18EA38760
:10479000D7001356870103C70701018BBA863287FA
:1047A000558F2388E70055A08327C4FE03C7D70091
:1047B00083C6E700A206558F83C6F700C206558F51
:1047C00083C70701E207D98F3E868327C4FE03C74C
:1047D000570183C66701A206558F83C67701C206BB
:1047E000558F83C78701E207D98F3307F6408327A8
:1047F000C4FE9375F70F83C6D700818A3686AE86CE
:10480000D18EA386D7009356870093F5F60F83C603
:10481000E700818A3686AE86D18E2387D7009356ED
:10482000070193F5F60F83C6F700818A3686AE86B8
:10483000D18EA387D7001356870103C70701018BC9
:10484000BA863287558F2388E7008327C4FE03C7C3
:10485000570183C66701A206558F83C67701C2063A
:10486000558F83C78701E207D98F3E868327C4FE11
:1048700003C7D70083C6E700A206558F83C6F7009B
:10488000C206558F83C70701E207D98FE3FEC7F041
:104890000100724405618280797106D622D4001825
:1048A000232EA4FC8327C4FDB337F00093F7F70F42
:1048B0003E8713065005C5679385873F3A85EFF01D
:1048C000FFAD232604FE8327C4FD83C7070093E7BB
:1048D000170013F7F70F8327C4FD2380E700832712
:1048E000C4FD03C79700018BA384E70003C7A7009B
:1048F000018B2385E70003C7B700018BA385E70081
:1049000003C7C700018B2386E7008327C4FD03C7C5
:10491000D700018BA386E70003C7E700018B23873D
:10492000E70003C7F700018BA387E70003C7070170
:10493000018B2388E7008327C4FD03C7570183C683
:104940006701A206558F83C67701C206558F83C7BC
:104950008701E207D98F3E878327C4FD9375F70F40
:1049600083C61701818A3686AE86D18EA388D7008A
:104970009356870093F5F60F83C62701818A368602
:10498000AE86D18E2389D7009356070193F5F60F93
:1049900083C63701818A3686AE86D18EA389D70039
:1049A0001356870103C74701018BBA863287558F9B
:1049B000238AE7008327C4FD03C7170083C62700A7
:1049C000A206558F83C63700C206558F83C747009E
:1049D000E207D98F0547638DE70489C709476380DC
:1049E000E70AEDA08327C4FD03C7570083C667000D
:1049F000A206558F83C67700C206558F83C78700EE
:104A0000E207D98F3E858327C4FD03C7570183C6BC
:104A10006701A206558F83C67701C206558F83C7EB
:104A20008701E207D98F3E868145EFB06FFD79A8F7
:104A30008327C4FD03C7570083C66700A206558FAE
:104A400083C67700C206558F83C78700E207D98FD8
:104A50003E858327C4FD03C7570183C66701A206AD
:104A6000558F83C67701C206558F83C78701E2073A
:104A7000D98F86073E868145EFB08FF881A88327BE
:104A8000C4FD03C7570083C66700A206558F83C6BF
:104A90007700C206558F83C78700E207D98F3E850E
:104AA0008327C4FD03C7570183C66701A206558F3C
:104AB00083C67701C206558F83C78701E207D98F66
:104AC0008A073E868145EFB0AFF301008327C4FD1E
:104AD000238007008327C4FE3E85B25022544561DF
:104AE0008280011106CE22CC00102326A4FE83274B
:104AF000C4FEB337F00093F7F70F3E871306600745
:104B0000C5679385873F3A85EFF05F898327C4FEA9
:104B100003C7570183C66701A206558F83C6770175
:104B2000C206558F83C78701E207D98F3E86832748
:104B3000C4FE03C7170183C62701A206558F83C68B
:104B40003701C206558F83C74701E207D98FB307E4
:104B5000F6403E85F240624405618280797106D656
:104B600022D40018232EA4FC232CB4FC232AC4FC3A
:104B70008327C4FDB337F00093F7F70F3E87130682
:104B8000000BC5679385873F3A85EFF03F81232669
:104B900004FE232404FE832784FD89E78D47232612
:104BA000F4FE59AB8327C4FD83C70700958B93F7A9
:104BB000F70F89C791472326F4FEBDAB8327C4FDB9
:104BC00083C7070093E7470013F7F70F8327C4FD58
:104BD0002380E7008327C4FD03C7170183C627018D
:104BE000A206558F83C63701C206558F83C747017A
:104BF000E207D98F3E87832744FD6361F7528327FD
:104C0000C4FD03C7570183C66701A206558F83C63B
:104C10007701C206558F83C78701E207D98F3E8689
:104C20008327C4FD03C7970083C6A700A206558F3C
:104C300083C6B700C206558F83C7C700E207D98F66
:104C4000B307F6402324F4FE032744FD832784FEA4
:104C500063F3E72E8327C4FD03C7170083C627002D
:104C6000A206558F83C63700C206558F83C74700FB
:104C7000E207D98F05476385E70E89C70947638631
:104C8000E71C11A98327C4FD03C7570083C667002B
:104C9000A206558F83C67700C206558F83C787004B
:104CA000E207D98F3E868327C4FD03C7970083C6DA
:104CB000A700A206558F83C6B700C206558F83C7CB
:104CC000C700E207D98FB297032684FE832584FDAF
:104CD0003E85EF809045832584FE0325C4FDEFF0DB
:104CE0003F8B8327C4FD03C7570083C66700A20616
:104CF000558F83C67700C206558F83C78700E207AA
:104D0000D98F3E868327C4FD03C7970083C6A700BB
:104D1000A206558F83C6B700C206558F83C7C7004A
:104D2000E207D98FB306F600032784FD832784FEAC
:104D3000B305F700032744FD832784FEB307F7403C
:104D40003E863685EF80703E032744FD832784FE30
:104D5000B307F740BE850325C4FDEFF07F8325AE82
:104D60008327C4FD03C7570083C66700A206558F7B
:104D700083C67700C206558F83C78700E207D98FA5
:104D80003E868327C4FD03C7970083C6A700A206FB
:104D9000558F83C6B700C206558F83C7C700E20789
:104DA000D98F86073307F600832784FE86073E8661
:104DB000832584FD3A85EF805037832584FE0325C3
:104DC000C4FDEFF0EFFC8327C4FD03C7570083C683
:104DD0006700A206558F83C67700C206558F83C72A
:104DE0008700E207D98F3E868327C4FD03C797005B
:104DF00083C6A700A206558F83C6B700C206558F8B
:104E000083C7C700E207D98F8607B306F60083275A
:104E100084FE8607032784FDB305F700032744FDBE
:104E2000832784FEB307F74086073E863685EF80EA
:104E3000D02F032744FD832784FEB307F740BE85A8
:104E40000325C4FDEFF0CFF4B9A48327C4FD03C745
:104E5000570083C66700A206558F83C67700C20637
:104E6000558F83C78700E207D98F3E868327C4FD0D
:104E700003C7970083C6A700A206558F83C6B70055
:104E8000C206558F83C7C700E207D98F8A07330749
:104E9000F600832784FE8A073E86832584FD3A85B3
:104EA000EF80B028832584FE0325C4FDEFF04FEE8C
:104EB0008327C4FD03C7570083C66700A206558F2A
:104EC00083C67700C206558F83C78700E207D98F54
:104ED0003E868327C4FD03C7970083C6A700A206AA
:104EE000558F83C6B700C206558F83C7C700E20738
:104EF000D98F8A07B306F600832784FE8A07032723
:104F000084FDB305F700032744FD832784FEB30720
:104F1000F7408A073E863685EF803021032744FD1F
:104F2000832784FEB307F740BE850325C4FDEFF059
:104F30002FE601008DA28327C4FD03C7170083C697
:104F40002700A206558F83C63700C206558F83C738
:104F50004700E207D98F05476387E70689C70947F6
:104F60006387E70C0DAA8327C4FD03C7570083C6D8
:104F70006700A206558F83C67700C206558F83C788
:104F80008700E207D98F3E868327C4FD03C79700B9
:104F900083C6A700A206558F83C6B700C206558FE9
:104FA00083C7C700E207D98FB297032644FD832544
:104FB00084FD3E85EF807017832544FD0325C4FDE5
:104FC000EFF00FDDC9A88327C4FD03C7570083C6D0
:104FD0006700A206558F83C67700C206558F83C728
:104FE0008700E207D98F3E868327C4FD03C7970059
:104FF00083C6A700A206558F83C6B700C206558F89
:1050000083C7C700E207D98F86073307F6008327D7
:1050100044FD86073E86832584FD3A85EF80F010A7
:10502000832544FD0325C4FDEFF08FD6ADA0832773
:10503000C4FD03C7570083C66700A206558F83C609
:105040007700C206558F83C78700E207D98F3E8657
:105050008327C4FD03C7970083C6A700A206558F08
:1050600083C6B700C206558F83C7C700E207D98F32
:105070008A073307F600832744FD8A073E86832587
:1050800084FD3A85EF80700A832544FD0325C4FD25
:10509000EFF00FD001008327C4FD03C7170183C6BB
:1050A0002701A206558F83C63701C206558F83C7D5
:1050B0004701E207D98F3E87832744FD1D8F832751
:1050C000C4FD9375F70F83C61701818A3686AE86B5
:1050D000D18EA388D7009356870093F5F60F83C629
:1050E0002701818A3686AE86D18E2389D7009356D2
:1050F000070193F5F60F83C63701818A3686AE869F
:10510000D18EA389D7001356870103C74701018BAE
:10511000BA863287558F238AE70021A09547232638
:10512000F4FE8327C4FD83C70700ED9B13F7F70F39
:105130008327C4FD2380E7008327C4FE3E85B25049
:10514000225445618280797106D622D40018232E1C
:10515000A4FC232CB4FC232AC4FC2328D4FC8327DE
:10516000C4FDB337F00093F7F70F3E871306101610
:10517000C5679385873F3A85EFF04FA2832744FDAB
:10518000B337F00093F7F70F3E8713062016C56775
:105190009385873F3A85EFF06FA0232604FE2324F2
:1051A00004FE232204FE832784FD89E78D472326FE
:1051B000F4FEA9A18327C4FD83C707008D8B93F755
:1051C000F70F91CB832744FD032744FE98C39947EB
:1051D0002326F4FE21A30325C4FDEFF09F90232294
:1051E000A4FE832744FD9C43032744FE6379F70212
:1051F000832744FD032744FE98C39D472326F4FEDE
:10520000832744FE89EF8327C4FD83C70700DD9B06
:1052100013F7F70F8327C4FD2380E700C1A183277D
:10522000C4FD83C7070093E7870013F7F70F8327B1
:10523000C4FD2380E7008327C4FD03C7570183C64D
:105240006701A206558F83C67701C206558F83C7B3
:105250008701E207D98F3E868327C4FD03C7D700A5
:1052600083C6E700A206558F83C6F700C206558F96
:1052700083C70701E207D98FB307F6402324F4FE62
:10528000832744FD9C43032784FE6366F71483272A
:10529000C4FD03C7170083C62700A206558F83C627
:1052A0003700C206558F83C74700E207D98F0547ED
:1052B0006384E70689C70947638FE70A2DA683271A
:1052C000C4FD03C7570083C66700A206558F83C677
:1052D0007700C206558F83C78700E207D98F3E86C5
:1052E0008327C4FD03C7D70083C6E700A206558FF6
:1052F00083C6F700C206558F83C70701E207D98F1F
:105300003307F600832744FD9C433E86BA85032578
:1053100084FDEF808061C1AC8327C4FD03C75700C3
:1053200083C66700A206558F83C67700C206558FD5
:1053300083C78700E207D98F3E868327C4FD03C752
:10534000D70083C6E700A206558F83C6F700C206C2
:10535000558F83C70701E207D98F86073307F60009
:10536000832744FD9C4386073E86BA85032584FD3A
:10537000EF80A05B8DAC8327C4FD03C7570083C6B5
:105380006700A206558F83C67700C206558F83C774
:105390008700E207D98F3E868327C4FD03C7D70065
:1053A00083C6E700A206558F83C6F700C206558F55
:1053B00083C70701E207D98F8A073307F6008327DF
:1053C00044FD9C438A073E86BA85032584FDEF8011
:1053D000C055010009AC8327C4FD03C7170083C66D
:1053E0002700A206558F83C63700C206558F83C794
:1053F0004700E207D98F05476383E70A89C7094752
:105400006381E714CDA28327C4FD03C7570083C679
:105410006700A206558F83C67700C206558F83C7E3
:105420008700E207D98F3E868327C4FD03C7D700D4
:1054300083C6E700A206558F83C6F700C206558FC4
:1054400083C70701E207D98FB297032684FEBE8582
:10545000032584FDEF80604D032784FD832784FEB0
:105460003305F7008327C4FD03C7570083C66700D1
:10547000A206558F83C67700C206558F83C7870063
:10548000E207D98FBE86832744FD9843832784FE95
:10549000B307F7403E86B685EF802049A9A283274F
:1054A000C4FD03C7570083C66700A206558F83C695
:1054B0007700C206558F83C78700E207D98F3E86E3
:1054C0008327C4FD03C7D70083C6E700A206558F14
:1054D00083C6F700C206558F83C70701E207D98F3D
:1054E00086073307F600832784FE86073E86BA8543
:1054F000032584FDEF806043832784FE860703270E
:1055000084FD3305F7008327C4FD03C7570083C616
:105510006700A206558F83C67700C206558F83C7E2
:105520008700E207D98FBE86832744FD98438327EF
:1055300084FEB307F74086073E86B685EF80E03EDF
:105540005DA08327C4FD03C7570083C66700A2067A
:10555000558F83C67700C206558F83C78700E20741
:10556000D98F3E868327C4FD03C7D70083C6E700D3
:10557000A206558F83C6F700C206558F83C7070161
:10558000E207D98F8A073307F600832784FE8A074C
:105590003E86BA85032584FDEF802039832784FE6B
:1055A0008A07032784FD3305F7008327C4FD03C75B
:1055B000570083C66700A206558F83C67700C206D0
:1055C000558F83C78700E207D98FBE86832744FDA6
:1055D0009843832784FEB307F7408A073E86B68543
:1055E000EF80A03401008327C4FD83C70700DD9B43
:1055F00013F7F70F8327C4FD2380E700832704FDFB
:10560000F1EF8327C4FD03C70700AD476316F7001A
:1056100089472326F4FED9A08327C4FD83C707004A
:1056200093E7270013F7F70F8327C4FD2380E700D4
:10563000832744FD9C43BE850325C4FDEFF08F8D79
:105640008327C4FD03C7170183C62701A206558F10
:1056500083C63701C206558F83C74701E207D98F3A
:105660003E87832744FD9C433E978327C4FD937563
:10567000F70F83C61701818A3686AE86D18EA3883E
:10568000D7009356870093F5F60F83C62701818ACA
:105690003686AE86D18E2389D7009356070193F5BF
:1056A000F60F83C63701818A3686AE86D18EA389EE
:1056B000D7001356870103C74701018BBA8632878B
:1056C000558F238AE7008327C4FD83C70700F59B16
:1056D00013F7F70F8327C4FD2380E7008327C4FE59
:1056E0003E85B250225445618280797106D622D41B
:1056F0000018232EA4FC232CB4FC232AC4FC23284A
:10570000D4FC8327C4FDB337F00093F7F70F3E872F
:1057100013062022C5679385873F3A85EFE01FC8AF
:10572000232604FE8327C4FD032744FD1376F70FC9
:1057300003C75700018BBA863287558FA382E700D3
:10574000032744FD21831376F70F03C76700018BFE
:10575000BA863287558F2383E700032744FD4183B0
:105760001376F70F03C77700018BBA863287558F00
:10577000A383E700032744FD1356870103C787006F
:10578000018BBA863287558F2384E7008327C4FDB7
:10579000238007008327C4FD032784FD1376F70FBA
:1057A00003C71700018BBA863287558FA380E700A5
:1057B000032784FD21831376F70F03C72700018B8E
:1057C000BA863287558F2381E700032784FD418302
:1057D0001376F70F03C73700018BBA863287558FD0
:1057E000A381E700032784FD1356870103C7470001
:1057F000018BBA863287558F2382E7008327C4FD49
:1058000003C79700018BA384E70003C7A700018BA0
:105810002385E70003C7B700018BA385E70003C713
:10582000C700018B2386E7008327C4FD03C7D70089
:10583000018BA386E70003C7E700018B2387E700FE
:1058400003C7F700018BA387E70003C70701018B9C
:105850002388E7008327C4FD032704FD1376F70F91
:1058600003C71701018BBA863287558FA388E700DB
:10587000032704FD21831376F70F03C72701018B4C
:10588000BA863287558F2389E700032704FD4183B9
:105890001376F70F03C73701018BBA863287558F0E
:1058A000A389E700032704FD1356870103C74701B7
:1058B000018BBA863287558F238AE7008327C4FD80
:1058C000032704FD1376F70F03C75701018BBA8630
:1058D0003287558FA38AE700032704FD21831376BF
:1058E000F70F03C76701018BBA863287558F238B69
:1058F000E700032704FD41831376F70F03C7770101
:10590000018BBA863287558FA38BE700032704FDEE
:105910001356870103C78701018BBA863287558FDB
:10592000238CE7008327C4FE3E85B2502254456194
:105930008280411122C60008996793878708739077
:1059400007800100324441018280411122C60008D3
:1059500099677390078001003244410182800111F0
:1059600022CE00102326A4FE8327C4FEFD8B05470C
:10597000B316F70037E700E08327C4FE95839387CB
:1059800007048A07BA9794C30100724405618280B4
:10599000011122CE00102326A4FE8327C4FEFD8B16
:1059A0000547B316F70037E700E08327C4FE958369
:1059B000938707068A07BA9794C30100724405616A
:1059C0008280011122CE00102326A4FEAE87A305FB
:1059D000F4FE37E700E08327C4FEBA970347B4FE1E
:1059E0002380E7400100724405618280011106CEE8
:1059F00022CC00102326A4FE0325C4FEEFF03FF6C0
:105A00000100F240624405618280011106CE22CC81
:105A100000102326A4FE0325C4FEEFF07FF701004B
:105A2000F240624405618280011106CE22CC001052
:105A30002326A4FEAE87A305F4FE8347B4FEBE85ED
:105A40000325C4FEEFF0FFF70100F2406244056158
:105A50008280011106CE22CC00102326A4FE8327CB
:105A6000C4FE99C783A741891387F7FF23AAE1885A
:105A700083A7418999E3EFF0DFEB0100F240624434
:105A800005618280411106C622C4000883A74189AE
:105A900099E3EFF09FEB83A741891387170023AAAF
:105AA000E18883A741893E85B2402244410182803A
:105AB000411106C622C400080145EFF09FF901001C
:105AC000B240224441018280357106CF16CD1ACBF7
:105AD0001EC922C72AC52EC332C1B6DEBADCBEDA61
